:1000000054464953000100002C1803006DF0A5521E
:100010002376013320052818484258312376010100
:10002000200528184842583123760102200518146B
:1000300048425831030000000000000000000000AA
:100040005446435300200000E4CE020000000000AC
:1000500000000220012100002521000099CD0100AF
:10006000292100002B2100002D2100003D2100004E
:100070003D2100003D2100003D2100002F21000016
:10008000312100003D210000332100009D7000005F
:1000900067750000372100003D210000C1D08000BD
:1000A00037210000A9540000AD5400007B7400000B
:1000B00037210000BB6C000051640000B154000007
:1000C000816A000037210000372100004D5F0000E9
:1000D00037210000372100003721000037210000C0
:1000E0000000000000000000000000000000000010
:1000F0000000000000000000000000000000000000
:1001000000000000000000000000000000000000EF
:1001100000000000000000000000000000000000DF
:1001200000000000000000000000000000000000CF
:1001300000000000000000000000000000000000BF
:1001400000000000000000000000000000000000AF
:1001500000F003F800F020F8FEE70D480168890878
:100160008900002001C101C101C101C17047000027
:100170000CF68000FEE7FEE7FEE7FEE7FEE7FEE79F
:10018000FEE7FEE7FEE703480047FEE7FEE7000064
:10019000202100003D21000000F002F800F068F886
:1001A0000AA090E8000C82448344AAF10107DA45D2
:1001B00001D100F05DF8AFF2090EBAE80F0013F0BC
:1001C000010F18BFFB1A43F001031847CCD40100FC
:1001D0003CD501000A444FF0000C10F8013B13F02D
:1001E000070408BF10F8014B1D1108BF10F8015B90
:1001F000641E05D010F8016B641E01F8016BF9D183
:1002000013F0080F1EBF10F8014BAD1C0C1B09D1D9
:100210006D1E58BF01F801CBFAD505E014F8016B4B
:1002200001F8016B6D1EF9D59142D6D370470000DD
:10023000103A24BF78C878C1FAD8520724BF30C812
:1002400030C144BF04680C607047000000230024E4
:1002500000250026103A28BF78C1FBD8520728BFD6
:1002600030C148BF0B6070471FB51FBD10B510BD32
:10027000DFF80CD0FFF7F8FF07F096FB1AF0A7FDA8
:100280000000022003B4FFF7F1FF03BC1AF0A6FD43
:1002900008B500200346024600900121022000F02C
:1002A0007EFB08BD38B5FF4D0024FF48EC812C8251
:1002B0006C8240698047E861FF206872FB48002338
:1002C0001A46046044608460C46004610120A8721E
:1002D0002C70AC70EC70287101460220009400F084
:1002E0005EFB012038BD38B5EE4D02286C7A2246FF
:1002F0000DD0052810D0A24208BF38BD002003460B
:1003000002462146009000F04AFB6C7238BD02297B
:1003100014BF01240224EEE7022914BF0424082498
:10032000E9E708B5009313460A460146012000F0AC
:1003300036FB08BD08B503460091032202210120C7
:1003400000F02DFB08BD38B500240EF0B3FF0028E7
:1003500018BF012414F068FF002818BF0224D148F8
:100360000178A14208BF38BD047000200346022175
:1003700000902246084600F012FB38BD38B5C94D42
:1003800004466878A04208BF38BD07F029FB6C70AE
:10039000002C0CBF0524062407F022FB00210528B1
:1003A00004BF052C2971002300911A462146022022
:1003B00000F0F5FA38BD08B500210B460246009161
:1003C0000721022000F0EBFA08BD08B500210B461A
:1003D000024600910821022000F0E1FA08BD08B5AC
:1003E00000210091002814BF0122002200230321D4
:1003F000022000F0D4FA08BDAA4808B50179012905
:100400001EBF0121017108BD002003460246009075
:100410000421022000F0C3FA08BDA24B0028DA78BC
:1004200014BF01210021D9708A4208BF7047021C05
:1004300018BF012208B50020034600900A210220BF
:1004400000F0ADFA08BD974B00289A7814BF01213F
:10045000002199708A4208BF7047021C18BF012210
:1004600008B50020034600900921022000F097FA09
:1004700008BD8C488078002818BF012070470120F3
:1004800088494871704787484079704785490020FE
:10049000487170472DE9F04104460127002503F01B
:1004A0000700804E8846012804BF0020708248D093
:1004B000022846D1708A7C4904280BD2002818BF34
:1004C000B06902D148688047B06110F8011B217003
:1004D000B0612FE0062809D288688047718A80B20F
:1004E000C1F10501C900C840207023E0082808D2E6
:1004F00008698047718AC1F10701C900C8402070AE
:1005000018E00C2808D248698047718AC1F10B01B4
:10051000C900C84020700DE00E2808D288698047C5
:10052000718AC1F10D01C900C840207002E0FF20AE
:1005300020700027708A401C80B270820E2828BF6D
:10054000012588F800503846BDE8F08130B403F04A
:1005500007000024DFF84CC1012804BFACF80E40AE
:10056000ACF812401BD013F0070F18D14D4BBCF85C
:100570001200DB89022805D2120242EA1322ACF8EB
:100580000E2009E003449D1EB5F5806F04DADCF807
:100590001C502B4403F8022C401CACF812000C70C9
:1005A00030BC00207047F0B40746002003F0070479
:1005B0003C4D0646012C04BF6E826E6125D0DFF8EB
:1005C000E4C0022CBCF810C003D013F0070F0DD00C
:1005D0001BE06A8A0CEB0203B3F5806F15D2E86961
:1005E000C05C3870501C688201200EE0120242EAA2
:1005F0001C222A826B69012B05D1B2F5806F24BFC2
:1006000040F2FF322A825A1C6A610E70F0BC7047B9
:1006100038B503F0070000240D46012809D1214810
:1006200000231A464482C48119460220009400F037
:10063000B6F92C70002038BD2DE9F04182B0174684
:100640000C0005464FF0000800F00281267818499A
:10065000012E18BF022E05D0032E5AD0002E00F016
:10066000F780BDE06078421E05EB001000F8102C0A
:10067000607805EB001000F80F6C08686288438D05
:10068000C08C5A4392FBF0F0627805EB021222F81C
:100690000E0C0868A288018D808C514391FBF0F00C
:1006A000617807E0B4F58000F4F401000CF68000F6
:1006B0004409012005EB011121F80C0C6178A079A7
:1006C00005EB011121F80A0C6178207A05EB011184
:1006D00021F8080C6178607A05EB011121F8060C0D
:1006E0006178A07B05EB011121F8040CE079052865
:1006F000607805EB001010F8021C0CBF41F00101FE
:1007000021F0010100F8021C002E69D102B0BDE801
:10071000F0816078421E05EB001000F8102C627822
:10072000032005EB021202F80F0C08686288438D63
:10073000C08C5A4392FBF0F0627805EB021222F86B
:100740000E0C0868A288018D808C514391FBF0F05B
:10075000617805EB011121F80C0C07F041F905282F
:1007600021D107B36178B87905EB011121F80A0CA2
:100770006178387A05EB011121F8080C6178787AF4
:1007800005EB011121F8060CF8790528607805EBD6
:10079000001010F8021C0CBF41F0010121F0010112
:1007A00000F8021C17E0607805EB001020F80A8CB6
:1007B000607805EB001020F8088C607805EB0010DD
:1007C00020F8068C607805EB001010F8021C21F070
:1007D000010100F8021C607805EB001020F8048C81
:1007E000012E18BF032E06D00EF0B7FA002804BF62
:1007F00002B0BDE8F08107F0F3F805281CBF02B095
:10080000BDE8F081012E04BFC0208DF8000005D0A6
:10081000022E0CBFC220C1208DF8000060788DF838
:10082000010060880123000A8DF80200A0788DF88D
:100830000300A0880622000A8DF8040020798DF8B4
:1008400005006946072013F031FB02B0BDE8F081D6
:1008500085F8008085F80180A5F80280A5F804805D
:10086000A5F80680A5F80880A5F80A80A5F80C80F0
:10087000A87B20F00100A87302B0BDE8F0814D49CB
:100880000020887170474B4880797047002818BF56
:1008900001204849C87170474648C0797047002810
:1008A00018BF01204349087270474248007A7047D8
:1008B0004049888170473F48808970473D49012001
:1008C000887170473C4B03EB80004254704730B551
:1008D00085B001788DF8001042788DF8012082787B
:1008E0008DF80220C2788DF8032002798DF804205B
:1008F00042798DF8052080798DF8060000200125C9
:100900002C4C8DF8070002900390522905D1E07914
:1009100088B9E57106F0FFFBA0819DF8000046282C
:1009200001BF9DF801000128207A002803D125721B
:1009300006F0F1FBA08107F083F901280CD1FFF349
:10094000D2F2012801BF9DF8000046289DF8010061
:10095000012804BF05B030BD684608F0B5DA05B01F
:1009600030BD70471349002818BF012088727047B6
:100970001048807A7047012818BF70470F48012936
:1009800004BF416841F4807105D0002906BF416869
:1009900021F480717047416070470948704708B57D
:1009A000DDF808C0CDF800C0DFF818C0DCF800C0E2
:1009B000E04708BDB4F580000CF680000010004050
:1009C0001CF00100F4F401007047002818BF01205A
:1009D000FE4908627047FD48006A002818BF0120E0
:1009E0007047C00000F1804000F5A04041637047AF
:1009F000C00000F1804000F5A040006B00F4807062
:100A000070471021C00000F1804000F5A040416314
:100A1000704730B48209EE4B00F00F0000EB40004D
:100A200053F822404FF4847505EB8015D1F800C0CF
:100A300044F805C053F822204FF4867303EB80106E
:100A40004968115030BC704750B18209E04850F8F5
:100A50002200D0F8402161F30D22C0F840217047F8
:100A6000DA48D0F83C2161F30D22C0F83C217047F0
:100A7000002804BFD548D0F83C0105D0D4498009EE
:100A800051F82000D0F84001C0F305207047CF494D
:100A9000D1F83C2160F31742C1F83C217047CB48A4
:100AA000D0F83C01C0F307407047C8B14FF4A072C2
:100AB000C0F3011302EB8312DFF814C300F00F033D
:100AC000800903EB43035CF82000002900EB83104E
:100AD00081580CBF21F0010141F0010181507047A4
:100AE000BA480029D0F83C1114BF41F0010121F0AF
:100AF0000101C0F83C117047002804BFB348D0F88A
:100B00003C0110D0B24A810952F8212000F00F01B7
:100B100001EB410102EB8111C0F301104FF4A0720F
:100B200002EB8010085800F001007047A84A8109C4
:100B300052F82110D1F8E01100F00F00012201F06D
:100B4000070102FA00F0084018BF012070474FF477
:100B5000A072C0F3011302EB8312DFF874C200F03D
:100B60000F03800903EB43035CF82000002900EB2E
:100B70008310815814BF41F0020121F0020181501D
:100B80007047934A810952F8212000F00F0101EBD0
:100B9000410102EB8111C0F301104FF4A07202EB8E
:100BA00080100858C0F3400070478A49C8707047E9
:100BB0002DE9F047860986484FF000070D4650F8AA
:100BC000264027620CBFC4F83C71C4F84071C4F8D9
:100BD0000072C4F84072C4F8C072C4F80073002DEB
:100BE00008BFBDE8F08728682060686860606168B9
:100BF0000120002908BF606077490860A968A160EA
:100C0000E968E160296921616969A161A969E16116
:100C1000296A6162696AE16221216163E163A96A0B
:100C20002164E96A6164296BA164696BE164A96B61
:100C30002165E96B6165296C2166696C6166A96C47
:100C4000A166E96CE166296D2167696D6167A96D2F
:100C5000A167E96DE167296EC4F88010696EC4F878
:100C60008410A96EC4F88810E96EC4F88C10296F3E
:100C7000C4F89010C4F89C00686FC4F8A400A86F72
:100C8000C4F8A800E86FC4F8AC00D5F88000C4F838
:100C9000B000D5F88400C4F8B400D5F88800C4F8D2
:100CA000B800D5F88C00C4F8BC00D5F89000C4F8A2
:100CB000C0004FF0FF30C4F8E400D5F89400C4F849
:100CC000E800D5F89800C4F8F000D5F89C00C4F806
:100CD000F400D5F8A000C4F8FC004FF4107205F140
:100CE000A40104F5807007F02ADEFEB9D5F8E4020D
:100CF00020F48030C4F84003D5F8E802C4F84C036F
:100D0000D5F8EC02C4F85003D5F8F002C4F8540347
:100D100014F03CF9012808BFC4F85473D5F8F40264
:100D2000C4F85803D5F8F802C4F85C03002005EBBA
:100D3000C001D1F8FC3204EBC002C2F86033D1F834
:100D40000013C2F86413401C0328F0DBD5F8140329
:100D5000C4F87803D5F81803C4F87C03D5F81C034D
:100D6000C4F88003D5F82003C4F88403D5F824031D
:100D7000C4F88803D5F82803C4F89403D5F82C03E5
:100D8000C4F89803D5F83003C4F89C03D5F83403AD
:100D9000C4F80004D5F83803C4F80404D5F83C03BB
:100DA000C4F810040023002004EBC30C05EBC307B8
:100DB00007EB8001D1F840830CEB8002C2F830844D
:100DC000D1F86813C2F85814401C07E000500040E6
:100DD00058F0010000040120045800400228E7DB1D
:100DE0005B1C052BDFDB012E08BF002104D0002E89
:100DF00008BF002032D05CE001EB410305EB830229
:100E0000002004EB830302EB800CDCF890C303EBBF
:100E10008007C7F880C4401C0328F4DB05EB810081
:100E2000D0F8C03304EB8102C2F8BC34D0F8D00350
:100E3000C2F8D004002004EBC10205EBC10303EBB0
:100E4000800CDCF8E0C302EB8007C7F8E4C4401C68
:100E50000228F4DB491C0429CEDB2AE005EB8001E3
:100E6000D1F8903304EB8002C2F89034D1F89C336F
:100E7000C2F8B034D1F8A813C2F8C014401C03283B
:100E8000ECDB002101EB410204EB021301EB8102D8
:100E9000002005EBC20202EB800CDCF8B4C303EBCC
:100EA0008007C7F8D0C4401C0A28F4DB491C052978
:100EB000E8DBD5F87C04C4F8B805D5F88004C4F89C
:100EC000BC05D5F88404C4F8C005D5F88804C4F876
:100ED000C405D5F88C04C4F8C805D5F89004C4F846
:100EE000CC05002E04BFD5F89404C4F8D00511D069
:100EF000012E0FD1D5F89804C4F8DC05D5F89C0470
:100F0000C4F8E005D5F8A004C4F8E405D5F8A404B5
:100F1000C4F8E805D5F8A804C4F8EC05D5F8AC0485
:100F2000C4F8F005D5F8B004C4F8F405002E04BFE9
:100F3000D5F8B404C4F8F805D5F8B804C4F8000628
:100F4000D5F8BC04C4F80406002101EB810205EBCE
:100F50008203002004EB820203EB800CDCF8C0C4A7
:100F600002EB8007C7F808C6401C0528F4DB491CC3
:100F70000229EADBD5F8E804C4F8400616B1012ED0
:100F80007ED018E1D5F8EC04C4F84406D5F8F00496
:100F9000C4F84806D5F8F404C4F84C06D5F8F804AB
:100FA000C4F85006D5F8FC04C4F85406D5F800057A
:100FB000C4F85806D5F80405C4F87006002005EBFF
:100FC0008001D1F8081504EB8002C2F87416401CA9
:100FD0000328F4DBD5F81405C4F88006D5F8180505
:100FE000C4F88C06D5F81C05C4F890064FF0000C28
:100FF0000CEB8C00002105EBC00804EBC0070020BF
:1010000008EBC10207EBC10302EB8009D9F8209578
:1010100003EB800ACAF89496401C0228F4DB491CB2
:101020000529ECDB0CF1010CBCF1020FE0DBD5F87B
:101030007005C4F8E406D5F87405C4F8E806D5F8D8
:101040007805C4F8EC06D5F87C05C4F8F006002055
:1010500005EB8001D1F8801504EB8002C2F8F4168C
:10106000401C0328F4DBD5F88805C4F8FC06D5F845
:101070008C05C4F80007D5F89005C4F8040700E013
:1010800038E0D5F89405C4F80807D5F89805C4F8F1
:101090000C07D5F89C05C4F81007D5F8E005C4F88E
:1010A0006007D5F80406C4F884070023002004EB89
:1010B000C30705EBC30C0CEB8002D2F8A08507EB4D
:1010C0008001C1F81487D2F8C085C1F83487D2F8FE
:1010D000E485C1F86487D2F80886C1F89487D2F80D
:1010E0002826C1F8B427401C0228E4DB5B1C042B33
:1010F000DCDB60E0D5F8EC04C4F84406D5F8F00475
:10110000C4F86C06002005EB8001D1F8F41404EB60
:101110008002C2F87016401C0328F4DBD5F80005E5
:10112000C4F87C06D5F80405C4F88006D5F808058F
:10113000C4F88406D5F80C05C4F88806D5F810055F
:10114000C4F80007002101EB410205EB82030020F7
:1011500004EB820203EB800CDCF814C502EB800781
:10116000C7F804C7401C0328F4DB491C0229EADB4A
:10117000002005EB8001D1F82C1504EB8002C2F8A9
:101180001C17401C0228F4DBD5F83405C4F82407EA
:10119000D5F83805C4F82807D5F83C05C4F8300759
:1011A000D5F84005C4F83407802205F2445104F50F
:1011B000EA6007F0C4DB002E0CBFF948F94800686C
:1011C00030F0FF0105D1D4F8901060F30301C4F8AA
:1011D0009010D4F8500320F00100C4F85003D4F864
:1011E000600320F00100C4F86003D4F8680320F025
:1011F0000100C4F86803D4F8700320F00100C4F8BB
:101200007003E948C078012818BFBDE8F087D4F81A
:10121000000620F00100C4F80006BDE8F087E249AE
:10122000002008707047E04800787047DE4840783A
:101230007047DD4988707047DB4880787047DB482D
:10124000D0F8500300F001007047D849C1F85403AA
:101250007047D648D0F854037047D3498860704728
:10126000D14880687047D049C8607047CE48C06890
:10127000704700F00F00CE4A801CA2FB00325208DB
:10128000A2EB82020244CB4800EBC200026861F389
:1012900009020260704700F00F00C549801CA1FBE5
:1012A00000214908A1EB81010844C24951F83000EE
:1012B000C0F309007047BD49D1F84C2360F3000228
:1012C000C1F84C237047B948D0F84C0300F0010036
:1012D0007047B9480168B44AC1F30021117101682F
:1012E00021F480710160B149D1F84C0310F0010084
:1012F000507108BF70470020D1F84C2360F3000202
:10130000C1F84C237047A849AB480A79002A026803
:1013100014BF42F4807222F480720260487900287F
:1013200008BF70470120A14AD2F84C1360F30001B6
:10133000C2F84C1370479C49086170479A4948614C
:1013400070472DE9F05F04460027384614F4803FCB
:1013500018BF012014F4003F18BF40F0040014F43B
:10136000802F18BF40F0020014F4002F18BF40F087
:10137000100014F4001F18BF40F0400014F4800F58
:1013800018BF40F0080014F4000F18BF40F0200010
:10139000DFF824A2DAF8001011F0010F18BF40F0B6
:1013A0008000DFF80482DFF8049298F8021000EA67
:1013B0000105D9F8400320F48030C9F84003D8F87B
:1013C000140028435FD0D8F81060DAF80000002736
:1013D000C0F3002088F80400DAF8000020F48070E0
:1013E000CAF80000D9F84C0310F0010088F8050095
:1013F00006D0D9F84C13002060F30001C9F84C1353
:10140000D9F8480340F00100C9F84803D9F840036F
:1014100040F48030C9F840034FF0630B17E004F04C
:10142000C0F85846D9F8481311F0100F0BD0D9F86E
:1014300044030005000D04D06049B1FBF0F0C8F88A
:101440000C00012703E0011EA0F10100EADC301EC0
:10145000A6F1010601DD002FE1D098F80400002874
:10146000DAF8000014BF40F4807020F48070CAF8ED
:10147000000098F8050030B1D9F84C13012060F352
:101480000001C9F84C13D9F8500320F00100C9F845
:101490005003D9F8600320F00100C9F86003D9F8BF
:1014A000680320F00100C9F86803D9F8700320F040
:1014B0000100C9F87003424B186820F00100186061
:1014C0004048016821F0010101603F490A6822F0AB
:1014D00001020A600122EFB315F0010F05D0D9F81F
:1014E00050C34CF0010CC9F850C315F0040F05D0DF
:1014F000D9F870C34CF0010CC9F870C315F0020F95
:1015000005D0D9F860C34CF0010CC9F860C315F0E0
:10151000100F05D0D9F868C34CF0010CC9F868C3A6
:1015200015F0400F05D0D1F800C04CF0010CC1F807
:1015300000C015F0080F03D0196841F001011960CF
:1015400015F0200F03D0016841F00101016088F817
:10155000015000E017E088F8002015F0160F0BD0BE
:10156000D9F87C0340F40030C9F87C03D9F8E800CE
:1015700020F40020C9F8E800D9F8400340F4803096
:10158000C9F8400350E0DAF8000010F4807F1DD065
:10159000D9F8E80040F40020C9F8E80021E0000094
:1015A000E0FE0400F0FE04000004012000500040B2
:1015B000ABAAAAAA6453004000560040C068780451
:1015C000605B0040685B0040705B0040D9F86000E1
:1015D00020F4F810C9F86000F948016821F4F81106
:1015E0000160002088F80100D8F81410294313D0B6
:1015F000022188F80010D9F8401341F48031C9F86D
:101600004013D9F8481341F00101C9F84813C9F84B
:101610008C03C9F88C2307E0D9F8401321F48031FA
:10162000C9F8401388F80000D9F83C0114F0010F04
:1016300020F00D0018BF40F0010014F0040F18BF97
:1016400040F0040014F0020F18BF40F00800C9F881
:101650003C01D9F8000214F0100F14BF40F0010053
:1016600020F00100C9F80002D9F8400214F0200F60
:1016700014BF40F0010020F00100C9F84002D9F881
:10168000C00214F0400F14BF40F0010020F0010030
:10169000C9F8C002D9F8000314F0800F14BF40F05D
:1016A000010020F00100C9F80003C64814F4805F6F
:1016B000016814BF41F0010121F001010160C2483D
:1016C00014F4005F016814BF41F0010121F0010131
:1016D0000160BE4814F4804F016814BF41F001015D
:1016E00021F001010160BA4814F4004F016814BFF1
:1016F00041F0010121F001010160B649086814F4CC
:10170000807F20F00D0018BF40F0010014F4806FBE
:1017100018BF40F0040014F4007F18BF40F0080028
:101720000860BDE8F09F2DE9F04F860900F00F0238
:1017300042EA86110025DFF8A0C28B09C1F3011827
:101740005CF8234002EB42034FF4A07704EB8314D0
:1017500007EB881882B054F8084014F0010F0ED13E
:1017600041F010018C09C1F301115CF8248007EBF2
:10177000811108EB8314615811F0010F63D05CF8FC
:101780002640E16901F0080B04EB83110091D1F8C8
:1017900000114FF4927C0CEB831989B2C0F301174E
:1017A00001230191BB4300211F015B4207EB03139F
:1017B00002EB420A03F1100842EA011343EA8613DE
:1017C000DFF814C2C3F3811E5CF82EC0C3F3011E00
:1017D0004FF4A0730CEB8A1C03EB8E135CF8033000
:1017E00013F0010F2CD010F00F0F04BFD4F82431E8
:1017F0009BB209D054F809C001232CFA07FC03FA64
:1018000008F35B1E0CEA0303DDF800C00CEB811C3F
:10181000DCF844E1BBF1000FCEF3080E1ABFDCF890
:1018200044C1CCF3023C4FF0000CC3EB031303EBB9
:1018300083032B440EFA0CF5DDF804C005FB0C35D0
:10184000491C0229B8D302B02846BDE8F08F2DE923
:10185000F0478509A901604A4FEA91104FF0000452
:1018600052F8200002460CBFD2F83C21D2F84021A9
:1018700012F0010F4FF001064FD002F0040702F002
:10188000080C11F00F03C1F3011854D003EB43030C
:101890004FF4927A0AEB831350F8039026EA080873
:1018A0004FEA081329FA03F9C8F1000803EB0813FB
:1018B000103306FA03F35B1E09EA0303D0F8008134
:1018C00000291FFA88F90CBFD0F84081D0F8448174
:1018D000C8F30808002F18BFC2F30744C769C2F352
:1018E000052217F0080F08BF002007D000290CBF01
:1018F000D0F84001D0F84401C0F30230BCF1000F31
:1019000018BF521C08FA00F002FB004000FB09F16E
:10191000C3EB031000EB8000441846EA8510FFF784
:1019200002FF0646022040EA8510FFF7FCFEA119DF
:101930000844BDE8F087D0F824319BB2BEE710B56B
:101940000020FFF784FF4FF47A7148432349B0FB2E
:10195000F1F010BD22484068C0F30E007047B0F5AA
:10196000004F28BF47F6FF701D494A6860F30E021A
:101970004A6070471A49D1F85C2360F30302C1F84A
:101980005C23704770B5164D0646286810F07F043A
:1019900008BF01240020FFF75AFF124B002E18BF8A
:1019A000002835D0D5F85023002112F0010F1BD0AC
:1019B000D5F85CC3012262F3030CC5F85CC318E0E0
:1019C00060580040005A0040405A0040C05A004051
:1019D000005B00404059004058F00100F82401002D
:1019E00000500040008C8647B3FBF6F2824288BF6D
:1019F000111AC4EB041202EB8202B1FBF2F1B1F551
:101A0000004F28BF47F6FF716A6861F30E026A60F3
:101A10006968C1F30E016143C1EB011101EB810162
:101A20000844B3FBF0F070BDF748D0F85C0300F059
:101A30000F00704770B5F44D0024D5F8500310F036
:101A4000010F08D0F1488168D5F85C0300F00F0061
:101A50004843040113E00020FFF7F9FE024628681E
:101A600000F07F016868C0F30E004843C0EB00102F
:101A700000EB800080181CBFE549B1FBF0F4204664
:101A800070BD8109E34A00F00F0000EB400052F8FE
:101A900021104FF4807202EB80100858DE4980B2AA
:101AA000B1FBF0F0401C400870472DE9F003DFF86F
:101AB00064C38309D74C85095CF8233000F00F0C10
:101AC00054F825400CEB4C0C00F00F0804EB8C1C78
:101AD000002904BFDCF8001189B2002A04BFDCF839
:101AE0000021120CD3F8804004F00F05D3F8804099
:101AF000C4F30314E41C6C436400B8F1000F18D065
:101B0000D3F8005615F0010F2DD000F00F05C0F3EB
:101B1000011606EB4505C14E755DD3F804666D1CD4
:101B2000AD0026FA05F515F0010F18BF01261AD0F1
:101B30001AE0D3F8B855D3F8006605F0010516F0A1
:101B4000010F1DBFD3F8046616F0010F0126002611
:101B500035431DBFD3F80451AFB20D1BA2F10F07DF
:101B600008BF3D1B04E00026DCF80451AFB20D1B9A
:101B7000541E002E18BFA5EB540525F00105B5F540
:101B8000004F28BF47F6FE75DCF8009161F30F099E
:101B9000CCF80091DCF8001162F31F41CCF8001181
:101BA000DCF8041167F30F01CCF80411DCF818110C
:101BB00065F30F01CCF81811E6B1B8F1000F1DD094
:101BC00003EBC801D1F8002664F30F02C1F8002628
:101BD000D1F8042664F30F02C1F80426D1F81426C4
:101BE00064F30F02C1F81426D1F8182664F30F022B
:101BF000C1F81826BDE8F00301F0C1B8D3F81816F3
:101C000064F30F01C3F81816D3F82C1664F30F0110
:101C1000C3F82C16EEE7034610B57F4831B1B0FB90
:101C2000F1F1491C4908B1F5803F02D34FF6FF712D
:101C300002E0202938BF2021B0FBF1F0401C44080D
:101C40004A081846FFF731FF204610BD10B483093B
:101C5000704C10F00F0F00F00F0054F8233000EB21
:101C600040004FF4807404EB801018584FEA104085
:101C70001CBF10BC7047D3F880C00CF00704D3F829
:101C800080C0401AD3F80411CCF3031C60F30F0199
:101C9000C3F80411012A1CBF10BC70470CF10301EA
:101CA0006143A0EB4100D3F8181120F0010060F36C
:101CB0000F01C3F8181110BC70478109554A00F094
:101CC0000F0000EB400052F821104FF4807202EB3D
:101CD00080100858000C70470A460021E5E60028ED
:101CE00004BF4948D0F8400110D04A4A810952F84F
:101CF000212000F00F0101EB410102EB8111C0F343
:101D000001104FF4A27202EB80100858C0F30A00D1
:101D10007047F0B43F4A4FEA901C00F00F0452F8AD
:101D20002C2004EB440502EB8515C0F30113D5F814
:101D30001C618E1BB61E002807BF334DD5F84071BD
:101D400005EB8315D5F8447161F30A070CBFC5F89C
:101D50004071C5F8447144EA031141EA8C1101F065
:101D60000F03C1F3011101EB43012D4B02F5C072CA
:101D7000595C4B08C90752F823C0C90E4FF6FF74CF
:101D80008C402CEA040CB4B204FA01F14CEA0101D3
:101D900042F82310F0BC00F0F2BF1E4B810900F0A6
:101DA0000F0253F82110C0F3011CCB6902EB420271
:101DB00001EB821203F01003D2F828110028C1F3BE
:101DC000080107BF1048D0F8400102EB8C10D0F892
:101DD0004401C0F30A00002B08BF0021401A000490
:101DE000000C08BF0120704703091B0203EB8101AF
:101DF00001F1005101F181510007C00E0B6802FA98
:101E000000F01843086070470050004000040120B3
:101E1000008C864758F00100F049020044F00100B0
:101E200038F001000209120202EB810101F10051B8
:101E300001F1815100070968C00E21FA00F000F09D
:101E40000300704770B40A68E0B1FA4C830900F0EF
:101E50000F0C54F823500CEB4C0CC0F301104FF452
:101E6000AA7605EB8C1506EB8016AA5154F82320B0
:101E70004FF4AC7302EB8C1203EB801049681150E5
:101E800070BC7047EC48C0F850214968C0F8541144
:101E900070BC704730B4F0B1DFF898C3820900F02D
:101EA0000F035CF8224003EB4303C0F301104FF42F
:101EB000AA7504EB831405EB801564590C605CF87B
:101EC000222002EB83124FF4AC7303EB8010105806
:101ED000486030BC7047D848D0F850210A60D0F82C
:101EE0005401F5E710B483B068B3D249820951F8C0
:101EF000222000F00F0101EB410102EB8111C0F340
:101F000001104FF4AA7202EB80128A5800924FF42B
:101F1000AC7202EB801008580190002001466A461E
:101F200001234FEA511C01F01F0452F82CC003FAA0
:101F300004F41CEA040F18BF401C491C2829F0D3E4
:101F400003B010BC7047BC48D0F850110091D0F8D5
:101F50005401E1E730B4002210F00F0F06D000F07A
:101F60000F02C0F3011303EB4202521EB14B800972
:101F70004FF4866553F8204005EBC205D1F800C048
:101F800044F805C053F8200040F2344303EBC2028A
:101F90004968815030BC704710B4002210F00F0F18
:101FA00006D000F00F02C0F3011303EB4202521EF1
:101FB000A04B80094FF4866453F820C004EBC204A0
:101FC0005CF804C0C1F800C053F8200040F234436C
:101FD00003EBC2028058486010BC70479648C06846
:101FE00070470021934A830952F82320D36913F0E4
:101FF000080F14D0002804BF8F48D0F840010CD03F
:1020000000F00F0101EB410102EB8111C0F301105F
:102010004FF4A27202EB80100858C0F30231084658
:102020007047DFF810C210B482095CF82230DC6916
:1020300044F00804DC6198B15CF8223000F00F0233
:1020400002EB420203EB8212C0F301134FF4A270C1
:1020500000EB8310135861F30E33135010BC70471C
:102060007548D0F8402161F30E32C0F8402110BC11
:10207000704700216F4A830952F82320D36913F077
:10208000080F14D0002804BF6B48D0F844010CD0CE
:1020900000F00F0101EB410102EB8111C0F30110CF
:1020A0004FF4A47202EB80100858C0F302410846B6
:1020B0007047A0B15F4A830952F8233000F00F0245
:1020C00002EB420203EB8212C0F301134FF4A4703F
:1020D00000EB8310135861F31243135070475648B6
:1020E000D0F8442161F31242C0F844217047514AAC
:1020F0008009002952F82000816914BF41F00801CD
:1021000021F00801816170474A49800951F8200097
:102110008069C0F3C0007047464A8009002952F820
:102120002000816914BF41F0020121F002018161A8
:1021300070474049800951F820008069C0F3400091
:102140007047002802BF3C48C0F84C117047820914
:10215000384B53F8223000F00F0202EB420203EB3F
:102160008212C0F301104FF4A87303EB80101150DA
:102170007047002802BF3048D0F84C0170478109F1
:102180002C4A52F8212000F00F0101EB410102EB33
:102190008111C0F301104FF4A87202EB80100858AF
:1021A000704770B40A68E0B1224C830900F00F0C4C
:1021B00054F823500CEB4C0CC0F301104FF4A876EC
:1021C00005EB8C1506EB8016AA5154F823204FF42A
:1021D000A67302EB8C1203EB80104968115070BC9F
:1021E00070471548C0F84C214968C0F8481170BCC8
:1021F000704730B410B3DFF83CC0820900F00F0321
:102200005CF8224003EB4303C0F301104FF4A875C0
:1022100004EB831405EB801564590C605CF82220F4
:1022200002EB83124FF4A67303EB80101058486042
:1022300030BC704758F0010000500040FE48D0F814
:102240004C210A60D0F84801F1E72DE9F04101F096
:1022500006F9F94BD3F83C1111F0010F18BF10F03B
:10226000010F0BD0D3F84C11D3F840210029C2F351
:1022700002321EBF002AC943C3F84C114FF0010CB3
:10228000674607FA0CF202EA000600210CEB4C024A
:10229000950105EB811202F1804202F5A042D2F8CD
:1022A000403113F0010F18BF002E0BD0D2F850317F
:1022B000D2F84441002BC4F302341EBF002CDB4390
:1022C000C2F85031491C0229E3D30CF1010CBCF1D6
:1022D000030FD6D3BDE8F0810021D84A830952F814
:1022E0002320D36913F0080F14D0002804BFD2486C
:1022F000D0F844010CD000F00F0101EB410102EBDA
:102300008111C0F301104FF4A47202EB8010085841
:10231000C0F3005108467047012070472DE9F00FC7
:10232000C0F30117DDE90885DDF8289000F00F06FD
:10233000002808BFDFF808C30DD0C04C4FEA901C3E
:1023400054F82CC006EB46040CEB841C4FF4B0741C
:1023500004EB8714A444B9F1000F14BF4FF0010A35
:102360004FF0000A022D16BF5FEA05044FF0010B83
:102370004FF0000BDCF8044061F35C6481096BF3FF
:102380001864002904BF63F3CA1462F3C60465F33A
:1023900042046AF30004CCF8044071D04FF0010409
:1023A000B4EB901F1CBFBDE8F00F7047B9F1000FF0
:1023B000DCF8080014BF40F0800020F08000CCF86A
:1023C000080007EB46009F49DFF87CC2095C1CF857
:1023D000009006EB4600800100EB871000F1804082
:1023E00000F5A040D0F854590020CE07F60EC8F3EF
:1023F0000A0740F2FF7C0CFA06FC4FEA890807FA4C
:1024000006F602F00F024FF00F0A03F00F0302FA74
:1024100008F703FA08F30AFA08F24FEA510804FA37
:1024200000F1294225D000EB4001890001EB880131
:1024300001F1804101F5A041D1F8809C29EA0C0905
:1024400049EA0609C1F8809C810001F1804101F54B
:10245000A041D1F8BC9C29EA020949EA0309C1F864
:10246000BC9CD1F8D09C29EA020949EA0709C1F8C5
:10247000D09C401C0428D2D3BDE8F00F7047FFE782
:10248000DCF8080068F31A40CCF80800DCF8080013
:10249000B9F1000F14BF40F0100020F01000CCF88C
:1024A0000800BDE8F00F70472DE9F84FC0F30118A0
:1024B000DDE90A46DDF8309000F00F07002808BF7C
:1024C000DFF87CC10DD05D4D4FEA901C55F82CC053
:1024D00007EB47050CEB851C4FF4B07505EB881531
:1024E000AC44B9F1000F14BF4FF0010A4FF0000ADD
:1024F000022E16BF5FEA06054FF0010B4FF0000BEE
:10250000DCF8045061F35C6581096BF31865002900
:1025100006D1197892F800B061F3CA156BF3C605BD
:1025200066F342056AF30005CCF8045013D1208805
:10253000DCF8081060F31A41CCF80810DCF8080049
:10254000B9F1000F14BF40F0100020F01000CCF8DB
:102550000800BDE8F88F0125B5EB901F18BFBDE856
:10256000F88FB9F1000FDCF8080014BF40F08000CC
:1025700020F08000CCF8080008EB47003149DFF874
:10258000C8C0095C1CF800C007EB4700800100EBE5
:10259000881000F1804000F5A040D0F85409CE0723
:1025A0004FEAD66A009040F2FF75002005FA0AF95A
:1025B0000F264FEA8C0506FA05FC4FEA5108012167
:1025C00001FA00F600990E4234D000EB4001890078
:1025D00001EB880101F1804101F5A04112F8046B83
:1025E00013F8047B34F804BBD1F880ECCBF30A0B6E
:1025F0002EEA090E0BFA0AFB4EEA0B0BC1F880BC5F
:10260000810001F1804101F5A041D1F8BCBC07F087
:102610000F072BEA0C0BAF404BEA0707C1F8BC7C55
:10262000D1F8D07C06F00F0627EA0C07AE403E43F7
:10263000C1F8D06C401C09E00050004058F0010087
:10264000585100403EF0010044F001000428B6D388
:10265000BDE8F88F2DE9F04FC0F30116DDE90A98C7
:10266000DDF824C000F00F05002808BFFB4F0CD098
:10267000FB4F840957F8244005EB450704EB87140A
:102680004FF4B07707EB861727447C680029C4F322
:10269000436EC4F3410B04F0010A18BFC1F800E017
:1026A000B9F1000F18BFC9F800B0B8F1000F18BF9A
:1026B000C8F800A0810952D00127B7EB901F18BFBE
:1026C000BDE8F08F06EB4500E649E74C095C245C69
:1026D00005EB4500800100EB861000F1804000F51D
:1026E000A040D0F854A94FEA5109C90700204FEA89
:1026F000D168A40007FA00F111EA0A0F2AD000EB12
:102700004001890001EB890101F1804101F5A041FF
:10271000D1F8801C21FA08F1C1F30A05810001F10A
:10272000804101F5A041D1F8BC6CD1F8D01CE64045
:1027300006F00F06E14001F00F01002A18BF42F831
:10274000041B002B18BF43F8046BBCF1000F18BF2B
:102750004CF8045B401C0428CCD3BDE8F08FB8686B
:10276000002AC0F30A41C4F3C310C4F3C30418BF62
:102770001460002B18BF1860BCF1000F18BFCCF814
:102780000010BDE8F08F8009B54A002952F82000FA
:10279000C16914BF41F0200121F02001C1617047DF
:1027A000AF49800951F82000C069C0F3401070475C
:1027B00070B400F00F0C0CEB4C024FEA8212C0F325
:1027C000011402EB841202F18042830902F5A04257
:1027D00031D00123B3EB901F1CBF70BC704704EBDA
:1027E0004C00D2F85459DFF884C21CF80040002095
:1027F0004FEA847C3F224FEADC6C02FA0CF201F0D3
:102800003F0101FA0CFC24F0030403FA00F1294211
:102810000CD004EBC00101F1804101F5A041D1F8D9
:10282000E46C964346EA0C06C1F8E46C401C0428AC
:10283000EBD370BC704738B1D2F86C0161F315402E
:10284000C2F86C0170BC70478948D0F8642161F30C
:102850001542C0F8642170BC704781091CBF00207C
:102860007047002804BF8248D0F864010ED000F001
:102870000F0101EB41018901C0F3011001EB801050
:1028800000F1804000F5A040D0F86C01C0F3054095
:1028900070472DE9F0010126B6EB901F1CBFBDE883
:1028A000F001704700F00F03C0F3011000EB43028A
:1028B00003EB43039B0103EB8010DFF8B0C100F191
:1028C000804000F5A0401CF80220D0F854794FEA6F
:1028D000827C00204FEADC653F2303FA05F422F0F6
:1028E000030C06FA00F23A4212D00CEBC00202F1DD
:1028F000804202F5A04211F8043BD2F8E48C03F0C8
:102900003F0328EA0408AB4048EA0303C2F8E43C6A
:10291000401C0428E5D3BDE8F00170470123B3EB68
:10292000901F18BF704730B400F00F0CC0F30110B7
:1029300000EB4C020CEB4C0C4FEA8C1C0CEB8010A7
:102940004A4C00F1804000F5A040A25CD0F85459F8
:1029500022F0030C00209207D40E03FA00F22A4260
:102960000CD00CEBC00202F1804202F5A042D2F87A
:10297000E42CE24002F03F0241F8042B401C042802
:10298000EBD330BC704730B4354BC0F3011400F0CA
:102990000F05A3F1080C04EB450401221CF804C048
:1029A00002FA0CF28009002953F82000D0F8101424
:1029B00014BF11439143C0F8101430BC704700F0AD
:1029C0000F02C0F3011303EB42022A4B00218009DE
:1029D0009A5C083353F82000D0F81004012303FA5E
:1029E00002F2104218BF01210846704770B410F07F
:1029F000300F0CBF012300238609DFF864C000F00C
:102A00000F024FEA90104FF49A7502EB42025CF805
:102A100020004FF0010405EB821214D085584FEAD4
:102A2000830C5B420CEB83031B1D04FA03F35B1E58
:102A300003FA0CF4194025EA040401FA0CF12143CD
:102A4000815070BC70470029815804FA03F31ABF03
:102A5000194381509943F3D070BC704758510040DE
:102A600058F001003EF0010044F001004AF001007E
:102A70000050004050F0010030B410F0300F0CBF97
:102A80000121002184094FEA9013E54D00F00F0069
:102A900000EB40004FF49A7202EB801255F82300CD
:102AA0004FF0010C0CD082588800C240494200EB24
:102AB0008100001D0CFA00F0401E30BC1040704731
:102AC00080580CFA01F1084018BF012030BC704753
:102AD000D34B800953F820C0CCF8741053F820C0B1
:102AE0001168CCF8781053F820005168C16770471E
:102AF000CC490028D1F8AC0014BF40F0020020F00F
:102B00000200C1F8AC007047C6490028D1F8AC00FB
:102B100014BF40F0010020F00100C1F8AC00704784
:102B2000C048D0F8E000C049096808437047BD4973
:102B3000C1F8E400BD4908607047BA48D0F8980071
:102B4000BB49096840EA4100704770B44FEA00751C
:102B5000860900F00F044FEAD565C0F30110A5F116
:102B6000020502F0010C05444FEA8C434FEA520083
:102B70000ED054B32A0102EB8C4202EBC10101EBEF
:102B8000800000F1405000F5C010806C70BC7047B0
:102B900001EB810184B105EB8502520102EB8C420D
:102BA00002EB011101EB800000F1405000F58010B4
:102BB000D0F8500F70BC704703EB011101EB80009F
:102BC00000F1405000F5801007E003EBC10101EB7C
:102BD000800000F1405000F5C010006870BC7047E4
:102BE000F0B44FEA0076870900F00F044FEAD6668A
:102BF000C0F30110A6F1020602F0010506444FEAF7
:102C0000854C4FEA52000ED054B3320102EB85429C
:102C100002EBC10101EB800000F1405000F5C01053
:102C20008364F0BC704701EB810184B106EB86023E
:102C3000520102EB854202EB011101EB800000F131
:102C4000405000F58010C0F8503FF0BC70470CEBCE
:102C5000011101EB800000F1405000F5801007E009
:102C60000CEBC10101EB800000F1405000F5C010F9
:102C70000360F0BC7047830900F00F02C0F301103D
:102C80000CD0002A08BF6B4805D0012A17D00028B5
:102C90000CBF6948694800EB81407047002A08BFB3
:102CA0004FF04050F7D0012A04D000280CBF6448F0
:102CB0006448F0E7002814BF63486448EBE7002845
:102CC00014BF63486348E6E710B44FEA007C840908
:102CD00000F00F034FEADC6CC0F30110ACF1020C02
:102CE00060440CD0002B08BF5B4817D0000100EBFC
:102CF00081405A4900EBC20010BC08447047002BC9
:102D000008BF57480AD000EB8000400100EB81402B
:102D100002EB820100EB01105249EDE710BC00EB21
:102D2000814070474000801C7047022826BF400841
:102D3000401E0020704740F6C411401C48437047B5
:102D400040F6C411884226BFB0FBF1F0401E0020BF
:102D5000704700EB4001C1EBC0104FF4C81100F503
:102D6000FA70B1FBF0F070474FF44811B1FBF0F08E
:102D70003D49A0F26B30A1FB0010000970472DE91E
:102D8000F0074FEA901C00F00F04254804EB4401C3
:102D900050F82C0000F5C07300EB8110D0F8000152
:102DA00040F2DC5280B2B2FBF0F100FB11200028AF
:102DB00018BF01200D182D4F00204FF6FF7644EA72
:102DC000001141EA8C1101F00F02C1F3011101EB76
:102DD0004201795C4A08C90753F82280C90E03EB07
:102DE000820228FA01F8D2F80CA0A8EB050906FA2D
:102DF00001F81FFA89F92AEA080A09FA01F14AEAF0
:102E00000109C2F80C90D2F8189029EA080848EA9B
:102E100001019161401C0228D1D3BDE8F007704741
:102E200058F0010000500040E0580040E4580040D5
:102E3000985800400000083048050830C80708309E
:102E4000502800305032003050140030500A00300A
:102E5000C802083048000830000018304800183018
:102E600000001030500F1030D34D621038F00100C8
:102E7000FDF7B1BD10B5FDF7AEFD012818BF10BDBF
:102E80000020FDF7A2FD21210020FDF7AAFD212150
:102E9000BDE810400120FDF7A4BD10B5FDF794FD7D
:102EA000FDF799FD01280AD10020FDF78EFD2121B3
:102EB0000020FDF796FD21210120FDF792FD012163
:102EC000052001F0D4FC0121052001F0D0FCFF49D0
:102ED0000020487110BD10B54FF4066001F020FDD0
:102EE000BDE810404FF4066001F00BBDF74A014603
:102EF000D078002818BF0120002918BF0121D17007
:102F0000002111717047F14A516A506208467047BA
:102F1000EE490020887048707047EC4900208870A6
:102F200048700871704770B50007C00E801E00EB36
:102F30008004E7480D4600EB44104FF4A07205F002
:102F4000FEDCE44805F5A07100EB4410BDE87040DC
:102F50004FF4A07205F0F39CDFF87CC348B14A42FD
:102F60004FF4806300EB810103EB8202604605F0C1
:102F7000E69C4FF48061604605F03D9D2DE9F041EF
:102F800006460020FDF774FDD44DD54F0446DEB152
:102F900004EB8400020190463146284605F0CFDC60
:102FA000424606F5F061384605F0C9DC04EB8404BE
:102FB00005EB0410502105F01EDD07EB0410BDE801
:102FC000F041502105F0179D401C00EB80000101ED
:102FD0000C46284605F00FDD21463846BDE8F04195
:102FE00005F0099D10B5B94C4FF040210346E06152
:102FF0000A6910F0FF0F14BF42F0030222F003022F
:103000000A6110F47F4F086914BF40F0300020F0CF
:10301000300008611846FEF794F9FEF704F961697B
:103020006269C1F307216FF30F1262616369C2B273
:1030300043EA02226261022803D1626942F001027E
:10304000626181421ABFA269002A10BD012918BF1E
:103050000021012818BF0020814208BF10BDBDE833
:10306000104010474FF04021886940F0020088610D
:10307000086940F0400008619448C06910F0FF0FF3
:1030800003D00A6942F003020A6110F47F4F03D0B3
:10309000086940F03000086100F0A6BE2DE9F04755
:1030A0004FF04023054698690C4640F002009861B5
:1030B000186940F040001861844FFA6912F0FF0F60
:1030C00003D0186940F00300186112F47F4F03D059
:1030D000186940F03000186100F086FE4FF00008DB
:1030E000002C7DD00020FDF770FC00202168FDF74A
:1030F0005FFD40206168FDF75BFD2846FFF772FF2A
:103100000020FDF7F9FC0126002838D0A068FFF761
:1031100035FF7148636953B1E1694FF4806C4A42ED
:103120000CEB820203EB810105F009DC1AE06D4D26
:103130004FF4806105F05FDC0020295600290EDB8A
:103140000A09120202EB800202F1005202F18152DE
:103150000907C90E136806FA01F119431160401CF2
:103160002828EAD3D4E906315F4893B14A424FF4A4
:10317000007C0CEB820203EB810105F0E0DBE068F0
:1031800070B30120FDF7B8FCDFF84491514E28B12F
:1031900008E04FF4007105F02EDCF0E71120FDF798
:1031A000ABFC68B1E56848464FF4A072294605F0CB
:1031B000C6DB30464FF4A07205F5A07105F0BFDB09
:1031C0000220FDF799FC18B91220FDF795FC38B1E3
:1031D000E46846484FF4A072214605F0B0DB00E0F9
:1031E00006E043484FF4A07204F5A07105F0A7DB98
:1031F00087F8028087F8018087F80480C7F8248068
:10320000F8780020F87087F804804FF4066001F029
:1032100087FBBDE8F0474FF4066001F072BB10B5C4
:103220000020FDF7D2FB00F0C8FD2848806B002885
:1032300008BF10BD4FF04020016921F0030101617A
:10324000016921F030010161016921F04001016152
:10325000816921F00201816110BD4FF4066001F027
:1032600055BB10B54FF4066001F050FBFDF7B3FB02
:1032700001280AD10020FDF7A8FB21210020FDF73D
:10328000B0FB21210120FDF7ACFB1A48D0F8401318
:1032900021F48031C0F840130020FDF796FB00F0C8
:1032A0008CFD0A48806B002808BF10BD4FF04020FD
:1032B000016921F003010161016921F0300101611F
:1032C000016921F040010161816915E018040120C4
:1032D000500F1030500F143000002030000010301C
:1032E00000001430E8090120000024309010103054
:1032F000901014300050004021F00201816110BD97
:1033000010B501F008FB10F0600018BF012010BDDF
:10331000FE4A9169906108467047FC48C069704751
:10332000FA484069704772B6F8494A6922EA0000D3
:10333000486162B67047F5480078002818BF012040
:10334000704770B5FDF747FB002818BF70BD00241B
:10335000EE4DAC706C7021212046FDF742FB21211F
:103360000120FDF73EFB2C70BDE870400120FDF709
:103370002CBB70B50446FDF72EFB002818BF70BDAE
:103380000021E24DA970697021210020FDF729FB81
:1033900021210120FDF725FB022C3CBF0120FDF778
:1033A00030FB012028702C62BDE87040FDF70DBB9A
:1033B00010B5FDF710FB002818BF10BD0020D34C3E
:1033C000A07060702121FDF70CFB21210120FDF789
:1033D00008FB0120FDF715FB012020702062BDE8ED
:1033E0001040FDF7F2BA0020FDF7EFBA10B5C74C58
:1033F0000020A07060702121FDF7F3FA2121012047
:10340000FDF7EFFA207800281CBF0120FDF7F9FA3C
:103410000120BDE81040FDF7D8BABC49886270476A
:10342000BA48C06A7047B94908637047B748006B2B
:103430007047B64A00F00F00116B21F00F010843EE
:1034400010637047B148006B10F0800F14BFC0F3D9
:10345000021000F00F007047AC4948637047AB485A
:10346000406B704770B5A94C0546A06A411C04F139
:103470004400A16240F82510226B12F0800F14BFA7
:10348000C2F3021202F00F023AB1B1FBF2F002FBFA
:103490001010002808BFFEF7D8FE207850B1206A2F
:1034A00010B1206A401E2062206A002804BF00205C
:1034B000FDF78BFA20212846FDF793FA616A00296F
:1034C0001CBF28468847FDF7AEFE02280ED1904863
:1034D000D0F88C1311F0010F1CBFD0F88C0330F022
:1034E0000F0003D0606940F0020060618948016804
:1034F00041F02001016070BD0020B3E70120B1E779
:1035000010B5FFF70DFB044610F4002F06D08048DD
:10351000D0F87C1321F40031C0F87C132046FFF76B
:1035200006FB7D48044208BF10BD7848416941F060
:10353000040141610E2101EAD43104F001020A4381
:10354000416962F31F4141617248016841F0200105
:10355000016010BD002818BF01206C4988637047C6
:103560006E4870476E4870476848C06B7047674840
:10357000006C70476548006C70472DE9F04F674F4D
:103580004FF0000C8DB007F15009E3464FF0FF3AC1
:1035900007F80CA009F80CB00CF1010CBCF1280FD5
:1035A000F6DB4FF0000C002807DD12F80C4007F89E
:1035B0000C400CF1010C6045F7DC00220124CDF831
:1035C00004B0E846CDF800B0002816DD17F902C0B7
:1035D000BCF1000F0EDB0CF10A06282E0AD24FEACE
:1035E000561C06F01F0658F82C5004FA06F6354310
:1035F00048F82C50521C8242E8DB0022944602AD6F
:10360000560902F01F0E58F8266004FA0EFE16EA5C
:103610000E0F1ABF05F802C00CF1010C05F802A04C
:10362000521C282AECDB0022002812DD17F902C008
:10363000BCF1000F0ADB0CF10A0CBCF1280F3ABFF9
:1036400015F80CC009F802C009F802A0521C824209
:10365000ECDB2E4E00220028C6F83CB009DD19F93B
:1036600002C0944502D0C6F83C9002E0521C82424F
:10367000F5DBDFF8ACC000200CF150070CF800A01F
:1036800007F800B0401C2828F8DB0020002905DDE1
:103690001A5C0CF80020401C8142F9DC0020CDF8B7
:1036A00004B0CDF800B0002913DD1CF90020002A79
:1036B0000CDB282A0AD2530902F01F0258F8239083
:1036C00004FA02F249EA020248F82320401C884228
:1036D000EBDB00200246430900F01F0958F82330B5
:1036E00004FA09F913EA090F1ABF2A54521C05F803
:1036F00000A0401C2828EEDB0020002918DD1CF962
:103700000020002A11DB282A0CE000001804012008
:10371000005000406C04012001003F00E809012036
:10372000100A01203CBFAA5C3A54401C8842E6DBE8
:103730000020C6F840B00029DCBF0DB0BDE8F08F16
:103740003A56824203D037640DB0BDE8F08F401C7A
:103750008842F5DB0DB0BDE8F08F00EB4001C1EB16
:10376000C010FE4901EB00107047FD49C0EB40104E
:1037700001EB80007047DFF8ECC3012B8CF80600EA
:103780008CF8071003D9401C20F0010011468CF87A
:1037900008008CF8091000FB01F24FF6FF7101EAF6
:1037A0004202ACF8102001EA4000ACF81200704769
:1037B000EC48407A7047EB48007A7047E94A9072CB
:1037C000D1727047E748C07A7047E648807A704700
:1037D000E54A107051707047E349085C70472DE965
:1037E000F047DFF88093044699F80300002804BFEF
:1037F00099F8010005F007DA99F80400002808BFDD
:10380000BDE8F0870027D9F81C003E463D46B84683
:1038100010F0070F1CBFD14F10F0020F05D0B9F800
:103820001010CE4A21F001018E1810F0F00F18BFD1
:10383000CB4DD9F82C002060FEF7FCF80830C0F31F
:103840000710A060FDF7F2FC10F0010F06D0FEF7A4
:10385000EBF8022828BF99F8020000D20020C4F833
:103860001880E7606060C4E904650120BDE8F08766
:10387000BC4900200871704770B505460020FDF76F
:10388000F7F800EB800002011446B849284605F01D
:1038900056D8224605F5F060BDE87040B44905F001
:1038A0004E98F0B583B00020FDF7E2F80446694673
:1038B0000020FEF7EFFA0022002C28D96E464FF0C8
:1038C000010C4FF6F075002102EB82004B0901F06C
:1038D0001F0756F823300CFA07F73B4211D0CB07ED
:1038E0005B0B03EB00134F0803EB870303F140531B
:1038F00003F580131B889BB2AB4202D903B00020B2
:10390000F0BD491C2829E1D3521CA242DBD303B0ED
:103910000120F0BD70B50007C00E801E00EB8004D2
:1039200094480D4600EB44114FF4A072284605F070
:1039300006D891484FF4A07200EB441105F5A07031
:10394000BDE8704004F0FB9F2DE9F04F07460007EB
:10395000C00E83B0801E002527F03F0BE9464FF0D4
:1039600001084FF6F0760290384665F31F1040EAE2
:103970000B0000F0FF0A5046FDF7BEF800283CD0CF
:103980005046FEF72EFB08FA00F4022C88BF0224F2
:1039900069465046FEF77EFA0022002C2DD9029887
:1039A000284400EB80004FEA401A002102EB820C11
:1039B000480901F01F0359F8200008FA03F31842E0
:1039C00015D001F001000AEB804000EB0C104B0811
:1039D00000EB830000F1405000F58010B0F8500F6C
:1039E00080B2B04203D903B00020BDE8F08F491C7B
:1039F0002829DDD3521CA242D7D36D1C022DB3D38C
:103A000003B00120BDE8F08F2DE9F0410025554CB1
:103A100000280E4645D000F00F01C0F30110012927
:103A20000EBF00210229BDE8F081022828BFBDE8B1
:103A3000F0810F18FCF7CFFF5FEA00081CBF0020E1
:103A4000FCF7C3FF002307EB87004FEA401C00226E
:103A500003EB830702F001000CEB8040510800EB00
:103A6000071000EB810000F1405000F58010521C5F
:103A7000C0F8506F282AEDD35B1C022BE7D3B8F1B6
:103A8000000F08BFBDE8F081A570657021210020FE
:103A9000FCF7A7FF21210120FCF7A3FF207890B3BA
:103AA0002EE0FCF798FF5FEA00081CBF0020FCF73F
:103AB0008CFF0023002203EB830CD007400B51083E
:103AC00000EB0C1000EB810707F1405707F580175A
:103AD000521C3E60282AF0D35B1C312BEAD3B8F18C
:103AE000000F08BFBDE8F081A5706570212100209E
:103AF000FCF777FF21210120FCF773FF207810B13C
:103B00000120FCF77EFFBDE8F0410120FCF75DBF1E
:103B100010B5FEF742F91349C88110BD114B10B41E
:103B2000E02101EA102CDB89C1B2C0F304229942E2
:103B300088BF194664246143B1FBF3F102EBC20371
:103B400003EB021201EB82014FF47A720B4B0CFB78
:103B500002F2A3FB02329208521C11E0E4A0012001
:103B6000B4A8012018040120240401200000103012
:103B700000001430500F1030500F1430ABAAAAAA16
:103B8000520810F4803F08BF494210F4003F14BFB0
:103B90008818881A00B210BC704710B5334C4FF427
:103BA0008061334804F027DF0020012321560029DB
:103BB00010DB0A09120202EB800202F1005202F14C
:103BC00081520907C90ED2F800C003FA01F14CEA8C
:103BD00001011160401C2828E8D310BD10B5234C0A
:103BE0004FF48061224804F006DF002001232156B3
:103BF000002910DB0A09120202EB800202F10052D6
:103C000002F181520907C90ED2F800C003FA01F18E
:103C10004CEA01011160401C2828E8D341F2D01180
:103C2000144804F0E8DEBDE8104041F2D01112481B
:103C300004F0E19E114810B5C06911490840FFF732
:103C4000D1F94FF480610A4804F0D5DE4FF4756174
:103C5000084804F0D0DE4FF47561074804F0CBDE6D
:103C6000BDE810400020FDF77ABE0000E809012001
:103C70000000203000001030000014301804012033
:103C80000100FF0082B040F6B832009013E000BFA0
:103C900000BF00BF00BF00BF00BF00BF00BF00BF2C
:103CA00000BF00BF00BF00BF00BF00BF00BF019842
:103CB000411E0191EBD20098411E009128BF019254
:103CC000F5D202B070472DE9F0410027734D01266F
:103CD000002808BF2E701FD001282F7018BF6F70EA
:103CE0001AD04FF04028D8F8100040F00400C8F86F
:103CF000100029786A4C002914BF4EF60800694864
:103D0000E06014BF68484FF0BB70A060674800686F
:103D100030F0FF0206D101E06E70E2E7E26860F386
:103D20000302E26089B1A06840F01800A0600120A1
:103D3000FFF7A8FFA06840F48050A0600120FFF7C3
:103D4000A1FFA06840F40070A0600120FFF79AFF77
:103D5000687870B1E06840F02000E060A06820F46E
:103D60000070A0600120FFF78DFFE06840F01000B8
:103D7000E060D4F8B00040F00100C4F8B0000120C9
:103D8000FFF780FFE6674FF4E0602061C4F88870B9
:103D90002878002818BFC4F89460E06820F030004C
:103DA000E060A06820F49050A060D8F8100020F0E7
:103DB0000400C8F81000BDE8F0813948C16821F05E
:103DC0003001C160816821F4905181604FF0402042
:103DD000016921F00401016170473549A1FB001020
:103DE0002E49C008486070474FF0402082B00169FA
:103DF00041F004010161DFF8A4C0294B9CF80000E8
:103E000038B1986840F018009860986840F4905075
:103E10009860DCF8040000281CBF2522009012D016
:103E20000BE000BF00BF00BF00BF00BF00BF00BF6E
:103E300000BF0198411E0191F3D20098411E0091EC
:103E400028BF0192F5D29CF8010018B1D86840F063
:103E50003000D860D3F8B00040F00100C3F8B000E3
:103E600002B070471349C0F3080041EA00200C4932
:103E7000086470470A494FF0204008647047084AB8
:103E8000116C4FF020401064506C11F0FF0FC0F324
:103E900008201CBF41F020411164704764040120D8
:103EA0000060004005F401002000E800D0FE04009E
:103EB000CDCCCCCC130000A04FF0402000210163FA
:103EC00003224263826B22F00F0242F003028263FC
:103ED000426942F002024261026922F00302026179
:103EE000026A22F0010202623B4A136843F00103B6
:103EF00013603C2282612822C26138480160384840
:103F00000160384850F88C2F42F480520260364AE3
:103F1000481E106035480160704710B501F039FB4C
:103F200032480468002C08BF30BFFAD0002101607D
:103F300001F033FB204610BD10B501F02AFB2B4ADF
:103F4000002107234FF04020146824B1116001F0D4
:103F500024FB204610BD72B6036320BF016362B626
:103F6000BFF36F8FBFF34F8FEEE710B504460F20FE
:103F700000F0B8FC0F2000F09DFC1D490A6842EAE1
:103F80000400086010BD1A490A6822EA00000860AF
:103F90007047164A516850600846704770B514481B
:103FA000006814490968114D00EA01046968002994
:103FB0001CBF2046884714F0100F05D0094850F860
:103FC0008C1F41F48051016007480460286840F468
:103FD0000040286070BD00000048004024480040B8
:103FE0001048004000300040144800406C0401209C
:103FF0001C48004018480040704770470022B2EB50
:10400000D10F26D20368B3F1FF3F04BF4368B3F179
:10401000FF3F17D18368B3F1FF3F04BFC368B3F11B
:10402000FF3F0FD10369B3F1FF3F04BF4369B3F111
:10403000FF3F07D18369B3F1FF3F04BFC369B3F109
:10404000FF3F01D0002070472030521CB2EBD10F4F
:10405000D8D30120704710B40023B3EBD20F30D275
:10406000D0F800C00C68A44522D1D0F804C04C6838
:10407000A4451DD1D0F808C08C68A44518D1D0F84B
:104080000CC0CC68A44513D1D0F810C00C69A4456D
:104090000ED1D0F814C04C69A44509D1D0F818C08D
:1040A0008C69A44504D1D0F81CC0CC69A44502D0C9
:1040B00010BC00207047203020315B1CB3EBD20FC6
:1040C000CED310BC012070472DE9F041054601F028
:1040D00068FA002021264FF4825784464FF4E022EC
:1040E0001660C5F800C0116841F004011160116844
:1040F00011F0040FFBD1176080232C460021D4F867
:104100000080B8F1FF3F04BFD4F80480B8F1FF3F4E
:104110001DD1D4F80880B8F1FF3F04BFD4F80C805B
:10412000B8F1FF3F13D1D4F81080B8F1FF3F04BFBE
:10413000D4F81480B8F1FF3F09D1D4F81880B8F151
:10414000FF3F04BFD4F81C80B8F1FF3F08D0C2F88D
:1041500000C0401CC0B20828C2D30220BDE8F081D4
:10416000491C2034B1EBD30FC9D3C2F800C00120E1
:10417000BDE8F0812DE9F041054601F012FA00207A
:10418000092684464FF4E0231E60C5F800C0196874
:1041900041F004011960196811F0040FFBD12C469D
:1041A0004FF4007200212768B7F1FF3F04BF676832
:1041B000B7F1FF3F17D1A768B7F1FF3F04BFE7682A
:1041C000B7F1FF3F0FD12769B7F1FF3F04BF676920
:1041D000B7F1FF3F07D1A769B7F1FF3F04BFE76918
:1041E000B7F1FF3F08D0C3F800C0401CC0B203289D
:1041F000CAD30220BDE8F081491C2034B1EBD20FB4
:10420000D1D3C3F800C00120BDE8F08170B50C46E1
:10421000054601F0C6F94FF4E0220221116025F0B5
:10422000030306201C601060106810F0040FFBD11F
:10423000002010601868A04214BF0220012070BD49
:104240002DE9F05F8846814604274FF07F0A4FF042
:10425000020B4FF4E02601F0A4F9494642465346CA
:104260004FF0060CC6F800B052F8040B41F8040BEE
:10427000C6F800C0306810F0040FFBD15B1EF1D20D
:10428000002030604C4645461F20D4E900C3D4E9E5
:104290000221D5F800E0E64504BFD5F804C09C45EE
:1042A00005D1AB68934204BFEA688A4208D07F1EFA
:1042B00003D34846FFF708FFCDE70220BDE8F09F93
:1042C00010341035401EE0D20120BDE8F09F70B5DB
:1042D0000D46044601F065F94FF400722146284668
:1042E00004F02DDB012070BD2DE9F0410546C0052D
:1042F000ADF5007D14460E46C00D25D0A8466FF3DF
:1043000008086F4601F04DF94FF4007241463846F7
:1043100004F015DBC5F30800C0F50077A74288BF9D
:10432000274668443A46314604F0C4DA4046FFF76F
:10433000CBFE022844D069464046FFF781FF0228A1
:1043400043D03D443E44E41BB4F5007F19D34FF401
:1043500000723146684604F0ADDA2846FFF7B4FE35
:1043600002282DD069462846FFF76AFF02282CD084
:10437000A4F5007405F5007506F50076B4F5007F28
:10438000E5D2C4B16F4601F00CF94FF40072294632
:10439000384604F0D4DA22463146684604F08ADA18
:1043A0002846FFF791FE02280AD069462846FFF703
:1043B00047FF022809D00DF5007D0120BDE8F081FE
:1043C0000DF5007D0A20BDE8F0810DF5007D0B2084
:1043D000BDE8F08130B4304D2A68002101244FF04F
:1043E000030C04FA01F3034204D04B000CFA03F36C
:1043F0009A431A43491C0D29F3DB2A6030BC7047ED
:10440000F0B4254D2A68002101244FF0030C022648
:1044100004FA01F3034206D04B000CFA03F7BA4347
:1044200006FA03F31A43491C0D29F1DB2A60F0BC9C
:1044300070472DE9F00100220125184C0F2605FADE
:1044400002F3034217D0D31702EB537C4FEAEC037D
:1044500004EB83031F682CF0070CA2EB0C0C4FEA53
:104460008C0C06FA0CF827EA080701FA0CFC47EA5C
:104470000C0CC3F800C0521C0D2AE0DB06498A6A06
:1044800022EA00008862BDE8F001704702498A6AAA
:1044900010438862704770470010004020100040B1
:1044A000704772B64FF04020816941F04001816150
:1044B000C16941F04001C16162B6016A41F0010188
:1044C000016270474FF04020016A21F00101016252
:1044D00072B6C16921F04001C161816921F04001DA
:1044E000816162B6704710B572B64FF04024A06982
:1044F00040F04000A061E06940F04000E06162B639
:10450000206A40F001002062B1494FF001100860BC
:1045100003210A2000F0ABF90A2000F0CBF9206A51
:1045200020F00100206272B6E06920F04000E061F6
:10453000A06920F04000A06162B610BDA44A41EA23
:104540000043136100235361401E491E41EA0040AD
:104550009061704710B441EA0041DDE9014C9C488C
:10456000016143EA024141614CEA0441816110BCAE
:104570007047DFF85CC2CCF82000CCF82410CCF8EF
:104580002820CCF82C300220CCF804000120CCF8F4
:104590000800DCF80C0010F0020F05D020BFDCF89A
:1045A0000C0010F0020FF9D10020704710B4012464
:1045B000DFF81CC2002B12BFCCF840400023CCF81F
:1045C0004030CCF82000CCF82420CCF82810CCF8CF
:1045D0000440CCF80840DCF80C0010F0010F05D0C6
:1045E00020BFDCF80C0010F0010FF9D110BC002046
:1045F0007047774982898A6402684A6242688A629F
:104600008268CA6280224A6001228A60CA6812F007
:10461000800F04D020BFCA6812F0800FFAD18A6ED2
:10462000120C02614A6E121482824A6EC2F3072291
:10463000C2824A6ED2B202830A6E121442830A6E9A
:10464000C2F3072282830A6ED2B2C2830A6FC2F318
:104650000A420284096FC1F30A01418400207047B5
:10466000027C017B02F03F0241EA02425849CA64DF
:1046700002688A6242684A628268CA6204224A60A8
:1046800001228A60CA6812F0040F04D020BFCA68F1
:1046900012F0040FFAD1CA6ED2B28282CA6EC2F38D
:1046A0000722C2828A6ED2B202838A6EC2F30722C6
:1046B00042834A6EC2F307228283496EC9B2C18324
:1046C00000207047DFF808C1CCF84020CCF820006B
:1046D000CCF82830CCF824100820CCF804000120B5
:1046E000CCF80800DCF80C0010F0080F05D020BF53
:1046F000DCF80C0010F0080FF9D100207047C388D7
:10470000B0F800C043EA0C4C314BC3F848C0D0F8B5
:1047100002004FEA3040D86419625A622020586083
:1047200001209860D86810F0200F04D020BFD8680E
:1047300010F0200FFAD10020704710B4DFF890C0BD
:10474000C488CCF8404004882404CCF84840D0F811
:1047500002404FEA3444CCF84C40447A007A04F0EA
:10476000010400F0010044EA0040CCF84400CCF819
:104770002010CCF83030CCF824204020CCF80400B5
:104780000120CCF80800DCF80C0010F0400F05D038
:1047900020BFDCF80C0010F0400FF9D110BC002055
:1047A0007047A3F1050C0A4BC3F840C018629A6227
:1047B00059621020586001209860D86810F0100FDE
:1047C00004D020BFD86810F0100FFAD10020704735
:1047D00000900040234810B5022140F8501F0121ED
:1047E00001611021416241F20601416100218161B4
:1047F0000421816390214163416B41F001014163D8
:10480000C16B21F40021C163C16B41F40051C1634C
:10481000C16B21F00101C163C16B41F00101C163B2
:104820004FF4817101610161032000F043F8002120
:10483000032000F01CF8002010BD10B5032000F08C
:1048400045F808484FF48071016600210166102187
:10485000816702214165002010BD034900200870D6
:10486000704700000030004074040120704700F0E1
:104870000303DA004FF0FF0C0CFA02F24FF0050CC4
:104880000CEBC30301FA03F300F0FC0101F1E0219A
:10489000002807DAD1F8140D90431A401043C1F8EC
:1048A000140D7047D1F8000490431A401043C1F82A
:1048B0000004704700F01F01012202FA01F14009D3
:1048C000800000F1E020C0F80011704700F01F01E7
:1048D000012202FA01F14009800000F1E020C0F855
:1048E0008011704700F01F01012202FA01F1400916
:1048F000800000F1E020C0F8801270471349086082
:1049000070474FF0E021C1F8000170474FF0E021FF
:10491000C1F8800170474FF0E020D0F800017047E7
:104920004FF0E021C1F880027047094800687047E5
:10493000074A1168106008467047054A126800F17E
:10494000100352F8230042F82310704700EF00E0F4
:1049500008ED00E002210C20FFF789BF72B64FF08E
:104960004020816941F480518161C16941F48051E5
:10497000C16162B6704772B64FF04020816921F480
:1049800080518161C16921F48051C16162B6704773
:10499000AA4881B0016F11F4007FFBD1816E11F044
:1049A000010F1CBFD0F88410009104D0D0F88410FF
:1049B000009A9142FAD0016F11F4007F04BF4CF2CB
:1049C0007101016642F24131816601B070479B4935
:1049D00081B04FF40D528A660A6FCA66012898BFEB
:1049E000012005D9401EB0F5803F28BF4FF6FF706B
:1049F00082B24FF05C5040EA022048664FF011400E
:104A0000C1F88000086F10F4007FFBD1886E10F0B1
:104A1000010F1CBFD1F88400009004D0D1F88400AD
:104A2000009A9042FAD0086F10F4007F04BF4CF255
:104A30007100086642F24130886601B070477F48D5
:104A400081B0016F11F4007FFBD1816E11F0010F75
:104A50001CBFD0F88410009104D0D0F88410009AC4
:104A60009142FAD04FF40D51816601B070474FF07A
:104A70004020806910F4805008BF70476F48806EF6
:104A800000F0010070476D48406EC0F30F20704782
:104A90006A48D0F88400704710B50C20FFF722FF59
:104AA0000C20FFF707FF65490220486710BD6349E6
:104AB00010B5032088670C20FFF708FFBDE8104001
:104AC0000C20FFF70FBF5E4A116810600846704760
:104AD0005A4810B5016FC16659480068002818BFD0
:104AE00080475848016841F48051016010BD544826
:104AF0004068704710B572B64FF04020816941F4AC
:104B000080518161C16941F48051C16162B6032065
:104B10004A4988670C20FFF7D9FE0C20FFF7E2FE18
:104B200000F036F9484B0420C3F888004FF6FF70B8
:104B3000C3F88C0072B66033FFF749FF4FF4007082
:104B4000186062B610BDF8B572B63C48016F11F43A
:104B5000007FFBD1816E11F0010F1CBFD0F88410D3
:104B6000009104D0D0F88410009A9142FAD04FF40A
:104B70000D51816634494FF400320A6662B6D1F8AD
:104B800004124FF04025002946D02D4C4FF6FF73FC
:104B9000591AA1602A6B090102F00F02521C5143FD
:104BA0006A6BDFF8A8C002F00F02521C4A43A2F55C
:104BB0009231F93961452FD2D0F88400191AE16099
:104BC000B1F5803F28D2224B4FF0000CA1FB030728
:104BD0000CFB037301FB0C31634603F047DE401C02
:104BE00040082061B0F57A7F38BF4FF47A70194BD6
:104BF0009968002908BF98605A681A609968C3E9E3
:104C000001108A4215D9824205D9814201D96160D9
:104C100002E0606000E0626000F0CAF872B6A86965
:104C200020F48050A861E86920F48050E86162B601
:104C3000F8BD8242EFD88142EBD8E8E700C00040DF
:104C4000780401206C04012000A000407713380094
:104C500080D1F008880A01200C48016841F40471F1
:104C60000160001F016821F004010160016841F04A
:104C7000100101607047064908607047BFF34F8F0D
:104C8000054904480860BFF34F8FFEE714ED00E0CC
:104C900008ED00E00400FA050CED00E00E480168A4
:104CA00041F0010101600E490C48C1F8C400704791
:104CB0000C48006842F27001084070470B480A49EE
:104CC00001600B4981600021C1604CF6CC4101615B
:104CD0000901416170470000144C004001005FA0D1
:104CE0000060004000440040A0802B000010004005
:104CF000504A5601022824BF00207047E34B53F866
:104D0000202043F820101046704770B5E04C206F0B
:104D1000DE4D10F0010F05D00120E0662868002864
:104D200018BF8047206F10F0020F08BF70BD02202F
:104D3000E0666868002808BF70BDBDE870400047A5
:104D400010B572B64FF04020816941F08001816159
:104D5000C16941F08001C16162B60222CC490A6595
:104D600001230B660323CB664A6572B6816921F085
:104D700080018161C16921F08001C16162B60920B1
:104D8000FFF798FD0221BDE810400920FFF76FBD35
:104D900072B64FF04020816941F080018161C169A4
:104DA00041F08001C16162B60220B94908657047CF
:104DB000B7490220486572B64FF04020816921F062
:104DC00080018161C16921F08001C16162B67047D3
:104DD0004FF040208069C0F3C0107047AC48016FAD
:104DE00011F4007F14BF4FF440714FF480710166DD
:104DF000704710B5A64CE06F10F0020F4FF00100A5
:104E000018BF0320606700F07DF94FF040210A6B66
:104E1000496B02F00F0201F00F01491C521C514373
:104E2000B0FBF1F00521B0FBF1F04FF40571000982
:104E3000C4F880109749A1FB00104009C4F8840011
:104E4000206F10F4007F14BF4FF440704FF4807057
:104E5000206610BD8E48016F11F4807F14BF4FF49F
:104E600040714FF4007101667047894B30B4DA6FBE
:104E700012F0010F14BF032202225A6700EB400513
:104E800040F2EE24C5EBC0104C43C1EBC00040F231
:104E900031114843804904EB4000A1FB00104FF062
:104EA000402100220C6B4FF0020CC008496B04F04B
:104EB0000F0401F00F01491C641C6143B0FBF1F0C9
:104EC0000521B0FBF1F0B0F5803F05D3511C40083F
:104ED000CAB2B0F5803FF9D242EA0C2141F010018C
:104EE000C3F88810C3F88C00186F10F4807F14BFCB
:104EF0004FF440704FF40070186630BC704764483F
:104F0000016F11F4003F14BF4FF440314FF4803172
:104F1000016670475E48016F11F4803F14BF4FF483
:104F200040314FF40031016670475948006FC0F3BB
:104F3000002070475648006FC0F3402070474FF084
:104F400040218969C1F3C011002904BF00207047C6
:104F50004F4900280CBFD1F80002D1F80402704775
:104F60004FF040239A69C2F3C012002A04BF002008
:104F70007047474A00280CBFD2F88000D2F888005A
:104F8000C0F30A200CBFD2F88020D2F8882002F0AB
:104F90000F0291401A6B02F00F02521C51435A6BE0
:104FA00002F00F02521C5143012202EB4000484321
:104FB0003A49A1FB0010C008704739490120087028
:104FC000704770B44FF04023C1EB01111A6B01EB35
:104FD0008101D3F834C002F00F020CF00F0C521C08
:104FE0000CF1010C02FB0CF20909B1FBF2F10029F2
:104FF00008BF012104D0B1F5803F28BF4FF6FF71F3
:105000009A69C2F3C012002A1CBF70BC704772B606
:105010009A6942F080029A61DA6942F08002DA61AC
:1050200062B61B4A4FF0020CC2F850C04FF4003475
:1050300014660425C2F88850C2F88C10194DD56644
:10504000C2F874C0184902283CBF104E46F8201020
:105050000021134801704FF400711166017819B9ED
:1050600020BF01780029FBD014669567D566C2F889
:1050700054C072B6986920F080009861D86920F019
:105080008000D86162B670BC7047000090040120B7
:1050900000A000401F85EB51CDCCCCCCB5814E1B80
:1050A0008C040120020002026B6F00004FF0E0212F
:1050B00000208861086126494860704710B54FF0AC
:1050C000E02460610020A0610221401EFFF7CFFBB9
:1050D00007202061BDE8104008F0CABF10B508F0F5
:1050E000CBFF4FF0E0210020086110BD10B508F0A3
:1050F000C3FF4FF0E0210020086115480188491CDA
:10510000018010BD1248806870472DE9F041104CB5
:10511000002705462780A0684FF47A71B0FBF1F0B4
:105120004FF0E026401E7061B7610221C81EFFF7F4
:105130009EFB0720306108F09BFF2188A942FCD329
:1051400008F09AFF3761BDE8F08101498860704737
:10515000980401204FF04020016C21F0010101640E
:10516000816921F400518161C16921F40051C1615B
:1051700070470F2934BF6FF07F410F39800000F175
:10518000804000F55040416170474FF040208169F8
:1051900041F400518161C16941F40051C161016C68
:1051A00041F001010164704710B501210720FFF7AC
:1051B0005EFB4FF04021886940F400508861C86967
:1051C00040F40050C861086C40F001000864CC480D
:1051D00000220260CB4B4360826040F6C412C26082
:1051E00001224261031D6FF07F425A616FF0FE425F
:1051F000C261C54A02624FF0FF32C2620A220263F4
:1052000041F2883242630A038263C04AC263C04AE1
:105210000261086C20F001000864886920F40050E5
:105220008861C86920F40050C86110BDB949BA4A04
:10523000014491423CBFB94908607047012898BFBA
:1052400070474FF040210A6B496B02F00F0201F0EA
:105250000F01491C521C5143B14AB2FBF1F1A84A5B
:10526000926B401EB1FBF0F0120C5043A949AA4AC0
:1052700001448A4284BFA949086070474FF0402327
:105280009869C0F3403058B9986940F4005098616B
:10529000D86940F40050D861186C40F001001864DF
:1052A0009749086940F001000861886B020C0869A1
:1052B00040F400400861501E002A24DD0A6C12F4FC
:1052C000805F1CD0086F01281DD91A6B5B6B02F040
:1052D0000F0203F00F03521C5B1C5A43904BB3FBAD
:1052E000F2F28B6B401EB2FBF0F01B0C5843894A64
:1052F000894B0244934284BF884A106003E0021E37
:10530000A0F10100DADC086920F4004008614FF4E4
:105310008050086470474FF040208069C0F34030EF
:10532000002808BF70477648016921F0010101613A
:1053300070474FF04020806910F4005008BF70475C
:105340006F48006900F0010070474FF0402080690D
:1053500010F4005F08BF704770B5694C206910F009
:10536000010F08BF70BDFFF7D6FA00F0800580205E
:10537000FFF7CCFA4FF480512164206940F40041DA
:1053800021612846BDE87040FFF7BBBA4FF04020CE
:10539000806910F4005F08BF704770B5584C2069F1
:1053A00010F0010F08BF70BDFFF7B5FA00F08005DF
:1053B0008020FFF7ABFA206C10F4805F1CBF206FD9
:1053C000FFF73CFF206920F4004020614FF480503B
:1053D00020642846BDE87040FFF793BA4FF04020A4
:1053E0008069C0F3403000281CBF4548806D70477D
:1053F0004FF040208069C0F3403000281CBF404877
:10540000006D70474FF040208069C0F340300028A5
:1054100008BF70473A4A106D404900281CBF5268C7
:10542000824291BF0020401C0A68B2FBF0F0486045
:1054300070474FF040208069C0F34030002808BF1B
:1054400070472F4AD06D354900281CBFD268824270
:1054500091BF0020401C0A68B2FBF0F088607047E2
:105460002749C8627047002908BF6FF07F41421E7C
:1054700002F07F0262F31F6128BF4FF00040084333
:105480001F49C861704710B50720FFF72BFA0720A6
:10549000FFF710FA1A48016C01642249816240F654
:1054A0000741416210BD164810B50021416281627A
:1054B0000720FFF70BFABDE810400720FFF712BAEC
:1054C000164AD168D0600846704738B50C4D286C34
:1054D000696A20F0030011EA000405D00F48C16892
:1054E00000291CBF2046884744F003002864286C2C
:1054F00000900D48016841F08001016038BD000056
:1055000000D00040D01213000F0008000F0004006C
:105510002A09C713F0A1A0FF71929B02A4040120E5
:10552000C0687804070003006C040120704770B560
:1055300005464FF40D500406A0660320E066264899
:1055400060664CF2710020662448C4F8800042F284
:105550004630A06602210020FFF789F90020FFF7FE
:10556000A9F9002D08BF70BDA06E42F24131084379
:10557000A06670BD012110B5880781674FF40D51F9
:1055800081660020FFF7A2F9BDE810400020FFF778
:10559000A9B9012081074867704701208107886702
:1055A00070474CF271008107086670470C4A116819
:1055B0001060084670470A4808B5006818B180476F
:1055C000002818BF08BD4CF2710188070166016F01
:1055D000C166006F009008BD070D8F3700864791A8
:1055E000B404012070B5FF4C00254FF4F061257024
:1055F000E570FD4803F0FFD94FF4F061FB4803F07C
:10560000FAD9A56025715021F94803F0F4D9502149
:10561000F84803F0F0D965717821F74803F0EBD929
:105620007821F64803F0E7D9E56070BDED480079D0
:10563000002818BF01207047EA484079002818BFA9
:1056400001207047E748C078002818BF0120704744
:10565000E948704770B5EA4EEA4D04460146327893
:105660002878E54B10444200184603F023D93278DD
:105670002878E24B104442002146184603F01AD91C
:10568000D8490120487170BDD648C0687047D648D7
:1056900070472DE9F041D34F80463878002814BF79
:1056A000D948DA48057814BFD948DA48047805FBA8
:1056B00004F6FEF7F6FE21462846FEF73FFFCA49EC
:1056C0004346CA4A0846FEF754FFFEF7FBFE720047
:1056D0004146C64803F0EED80120F870BDE8F081DD
:1056E0002DE9F047BF4D044601462878DFF8F8C29F
:1056F000DFF81483DFF81493C54EC64F002815BF9A
:1057000098F8002099F8002033783B7802FB03F0EA
:105710004FEA4002604603F0CDD82878DFF8CCC2CB
:105720002146002815BF98F8002099F8002033780A
:105730003B7802FB03F04FEA4002604603F0BAD820
:105740000120E870BDE8F087A6488068704770B512
:10575000B14C054601462278A548520003F0AAD86C
:10576000227829465200A34803F0A4D89D4901207D
:10577000087170BD2DE9F04FADF2C47DDFF864A271
:105780000120CDF8A8079AF80300CDF8A4079AF8ED
:105790000400CDF8A0079AF805000025CDF89C0775
:1057A00002F01EF90446FDF763FBCDF8BC07FDF7D8
:1057B000C2FDCDF8B807FCF7CDF8CDF8B407FBF77C
:1057C00035FD0646FBF72FFD8046FDF753FB9AF8A3
:1057D00001000027002804BF0420CAF814000AD0E2
:1057E000022C18BF64250CD002F012F9062808BF5D
:1057F0000F258AF801704FF00109B8F1020F18D196
:1058000009E0FFF378F648F20211084214BF4FF4A2
:10581000FA75FA25E8E702F013FA50B9022C08BF2E
:105820004FF47A7503D0052C08BF322501D18AF8D0
:105830000190002DD8BFDAF814000EDD16F0010F2C
:105840003DD002F027FAA0B368434FF47A7100F517
:10585000FA70B0FBF1F0CAF814000228BCBF0220B5
:10586000CAF81400DAF8180040B1DAF81C10DAF8B7
:105870001400884298BF0846CAE905079AF8010053
:10588000BAF81410000240EA014040F0010200237F
:10589000912107200EF0D8FA16F0010F1BD002F06C
:1058A000F9F908F038FEFDF74CFD0020CDF8A80707
:1058B00018E0FFE7052C14BF78203C20C4E7FCF774
:1058C0003EF84FF47A71694300F5967001EB500190
:1058D000B1FBF0F0BFE7022CE5D00020FCF73FF869
:1058E000FDF766FD0026B34607F0CAFC01281AD072
:1058F0000DF5F060FDF773FF002800F0FA810DF55B
:10590000F06008F00BFADAF81400C11EB142ACBF27
:1059100001270027001FB0422BD1FA2D18BFB5F583
:10592000FA7F26D103E04FF0010B00F0CCB908F06C
:1059300004FDF0B9FDF79EFA02F0C9FB002403F064
:105940002FFC641C052CFADB03F0E5FB78B100F0BA
:105950000F0108292CBF09EB101404092046FEF79B
:1059600081FA00232246952107200EF06DFAFDF7FB
:10597000E8FCDDF8900788B3DDF8A00770BB684647
:10598000DDF8901705F02CDB80467FB1224C4146B4
:1059900020784200164802F08DDF20784146420010
:1059A000144802F087DF8AF8049017E0FEF779FDCB
:1059B000194C01212078FEF7C1FD0E4A4346A2F1A1
:1059C00050010846FEF7D5FDFEF77CFD20784146E4
:1059D0004200084802F06EDF8AF80490DDF88C0778
:1059E00000281BE0B8040120ACA90120940A012082
:1059F00014210120642101202CB10120B4210120B7
:105A00002805012029050120260501202305012064
:105A100027050120240501202A05012000F0D5805A
:105A2000DDF8A40700287CD19AF80000DDF88C4747
:105A300000286BD1DAF80880B8F1000F25D0F748BC
:105A40000078CDF8B007F6480078CDF8AC07FEF73F
:105A500028FDDDF8AC17DDF8B007FEF76FFD214635
:105A6000002342460846FEF7A1FDFEF72BFDED4858
:105A70000078022804BF404607F02AFEE948007873
:105A8000092804BF204607F023FEE74800780128D4
:105A900014D9DFF8908398F80000042804BF20464A
:105AA00007F016FE2146684603F010DD044698F81C
:105AB0000000052804BF204607F00AFE02F0C0F8E7
:105AC00020B301F08DFF022820D10FF0ADFB18B1FB
:105AD000FFF387F5082819D1D44800220378D44869
