:100000001058002099CC0008C1BA0008E1BA0008D5
:1000100000000000000000000000000000000000E0
:1000200000000000000000000000000009BB000804
:10003000000000000000000029BB000849BB0008C8
:1000400007570008635D00088FBD0008675D000862
:100050009F6600088F870008139C00081B9E0008FD
:10006000AFAC000899BD0008A3BD0008ADBD0008F5
:10007000A3AD0008FBAD00080BAF0008B7BD00083A
:10008000D3B20008FBB200088BB30008DBC4000841
:100090008BC9000847CC0008C5CC0008C1BD0008CA
:1000A000E5BD0008C7CC0008C9CC0008CBCC0008CF
:1000B00005BE00082FBE0008CDCC00087047704771
:1000C000F446002804D4494200F013F84042604747
:1000D0004042002905D45FD000F00BF8404249426D
:1000E0006047494200F005F84942604703460B4328
:1000F000E6D40022030A8B420BD203098B4219D2A9
:1001000043088B422ED2411A00D20146524110467A
:100110007047FF2209023FD012068B4205D312120C
:1001200009028B4201D31212090203098B4219D32F
:1001300000E0090AC3098B4201D3CB01C01A524126
:1001400083098B4201D38B01C01A524143098B4270
:1001500001D34B01C01A524103098B4201D30B0159
:10016000C01A5241C3088B4201D3CB00C01A52417E
:1001700083088B4201D38B00C01A524143088B4243
:1001800001D34B00C01A5241884200D3401A524159
:10019000CFD201461046704708B505F0E1FD08BD15
:1001A000000000000000000000000000000000004F
:1001B000000000000000000000000000000000003F
:1001C000000000000000000000000000000000002F
:1001D000000000000000000000000000000000001F
:1001E000000000000000000000000000000000000F
:1001F00000000000000000000000000000000000FF
:10020000002200222020071600000000000000004D
:1002100038B5040015D025007C356868002804D165
:1002200000202870200001F0F8F824206860206881
:100230000168012291430160200000F02FFA01289B
:1002400001D1012032BDA06A002802D0200000F0B8
:1002500017FF20684168254A0A404260206881688B
:100260002A22914381602068016801220A430260CA
:10027000200000F06AFF32BD38B5040015D025001B
:100280007C356868002804D100202870200001F027
:10029000C4F824206860206801680122914301604D
:1002A000200000F0FBF9012801D1012032BDA06A35
:1002B000002802D0200000F0E3FE206841680B4ACD
:1002C0000A40426020688168222291438160206850
:1002D000816808220A4382602068016801220A437B
:1002E0000260200000F031FF32BD0000FFB7FFFFC9
:1002F00038B5002801D1012032BD04007C3424210E
:10030000616001680A6801239A430A600025016858
:100310000D6001684D6001688D6001F046F9E5608F
:100320006560A5602570284632BD70B505002E00B9
:100330007C367068202848D100290CD010000AD0E3
:10034000A86880235B01984207D12869002804D15E
:100350000800C00701D5012070BD7C20285C012861
:1003600033D001203070296528005430028042804B
:100370000024F46021217160016A00291AD03F4BEA
:10038000CB623F49036A19635E49036A5963016A94
:100390008C63130029680A002832296D006A01F075
:1003A000E1F9002806D01020F06034702020706041
:1003B000012070BD40202968086234702868816877
:1003C00080220A438260204670BD022070BDF8B5CD
:1003D00005002E007C36B06820284CD100290CD0B6
:1003E00013000AD0A86880225201904207D12869E0
:1003F000002804D10800C00701D50120F2BD7C20EF
:10040000285C012837D0012738003070A965280002
:100410005C3003800024F4602221B160C1690029AE
:1004200018D0394ACA623949C26911633549C2696B
:100430005163C1698C63AA6D29682431C06901F0D8
:1004400091F9002806D01020F060347020207060F0
:100450003846F2BD3470286801683A020A430260E7
:10046000286881680F4387602868816840220A43B2
:1004700082602046F2BD0220F2BD00004B1200084F
:100480007B12000870B504008020215825008435B7
:100490002E6820688268120614D5212912D181683D
:1004A000802291438160606F002808D001F0A9F993
:1004B000002804D0606F01F099FA202818D020009D
:1004C00000F0A5FE20688168490618D5222E16D1B5
:1004D0008168402291438160A06F00280CD001F018
:1004E00090F9002808D0A06F01F080FA202803D1ED
:1004F00010206860032070BD200000F096FE0020F0
:1005000070BD0000F712000885120008ED12000807
:10051000F8B504002568E8692968AA6803071B0F75
:100520000DD1202630420AD00E4001D1D60006D58A
:10053000E16E002900D1ACE020008847F1BD002B1E
:1005400077D0544B1A4203D1902676000E4070D0DB
:100550000600F60708D5CE0506D501262E628825A9
:1005600065592E4388256651022528420AD0160077
:10057000F60707D5266835628826A75904263E4324
:100580008827E6510426304209D01700FF0706D518
:1005900027683E628826A65935438826A551082536
:1005A00028420AD08E0601D4134006D023681D626B
:1005B000230088331E682E431E60270088373B685F
:1005C000002B66D02023184008D00B4001D1D0006A
:1005D00004D5E16E002901D0200088473868402604
:1005E00021688968314001D105401CD0200000F00D
:1005F0001CFE206881680E4011D081684022914322
:100600008160A06F00280AD023498163A06F01F0A8
:1006100036F900283DD0A06F816B8847F1BD2000DE
:1006200001F0CEFFF1BD200001F0CAFF00203860CC
:10063000F1BD80235B03184206D0560204D52B621D
:10064000200002F0A7F8F1BD8023184209D00B402A
:1006500001D1120205D5216F00291AD02000884748
:10066000F1BD4022104205D00A4003D0200000F026
:100670007BFEF1BD020205D54A0003D52000FFF73D
:100680001DFDF1BDC00104D5002902D52000FFF7F2
:1006900016FDF1BD0100001045130008FEB507006E
:1006A00000242646204639680A683E4B1340BA6843
:1006B0001A433B6913437A691A43FB6913437A6E01
:1006C0001A430A6039684A68374B1340FA681A437C
:1006D0004A60B96900913A6834498A4203D0009D62
:1006E0003B6A2B4300939568314B2B40009D1D4383
:1006F00095603A68D36A0F25AB437D6A1D43D56286
:100700003A682C4B9A4223D12B4B1B689B079B0FBB
:100710005AD0022B2BD059D3032B59D0102301933D
:1007200001258A4200D06FE21946002909D002292A
:1007300000D17FE0042900D1B2E0082900D1E6E031
:100740001BE102F0C8FB796A002943D129006EE061
:100750001A4B9A420DD1184B1B680C251D4033D003
:10076000042D33D0082D02D00C2D31D0D6E7022332
:10077000D5E7134B9A4227D0124B9A4224D08A4293
:10078000CCD10D4B1D68C0231B012B401CD00D0D7F
:10079000AB421BD0CD0CAB42E9D0C0252D01AB4202
:1007A00016D0BBE7F369FFCFFFCFFFFF008000400B
:1007B000FFF4FF1100380140541002400044004093
:1007C00000480040004C00400346A8E70423A6E789
:1007D0000823A4E7012901D1022128E0022901D13F
:1007E000042124E0032901D1062120E0042901D1BC
:1007F00008211CE0052901D10A2118E0062901D1B0
:100800000C2114E0072901D1102110E0082901D1A1
:1008100020210CE0092901D1402108E00A2901D159
:10082000802104E00B2901D1290200E02900FFF713
:1008300060FCA3E0786A002801D129002CE001289F
:1008400001D1022128E0022801D1042124E003285B
:1008500001D1062120E0042801D108211CE005284F
:1008600001D10A2118E0062801D10C2114E0072843
:1008700001D1102110E0082801D120210CE0092825
:1008800001D1402108E00A2801D1802104E00B2891
:1008900001D1290200E029008C48FFF72AFC6DE015
:1008A00002F0CCFA796A002901D129002CE0012953
:1008B00001D1022128E0022901D1042124E00329E9
:1008C00001D1062120E0042901D108211CE00529DD
:1008D00001D10A2118E0062901D10C2114E00729D1
:1008E00001D1102110E0082901D120210CE00929B3
:1008F00001D1402108E00A2901D1802104E00B291F
:1009000001D1290200E02900FFF7F3FB36E0786A05
:10091000002801D129002CE0012801D1022128E082
:10092000022801D1042124E0032801D1062120E07E
:10093000042801D108211CE0052801D10A2118E072
:10094000062801D10C2114E0072801D1102110E064
:10095000082801D120210CE0092801D1402108E01C
:100960000A2801D1802104E00B2801D1290200E0EE
:100970002900E803FFF7BDFB00E02E00002800D1AE
:1009800072E3796800914A005118884203D30099B4
:100990000903814201D22E0066E30198002808D0A5
:1009A00002284DD0042800D192E0082800D1D6E0DA
:1009B0001AE102F090FA796A002901D129002CE0AD
:1009C000012901D1022128E0022901D1042124E0DA
:1009D000032901D1062120E0042901D108211CE0CE
:1009E000052901D10A2118E0062901D10C2114E0C2
:1009F000072901D1102110E0082901D120210CE0A4
:100A0000092901D1402108E00A2901D1802104E00F
:100A10000B2901D1290200E029007C68FFF769FB5E
:100A20000021020E1143000202000B0060080021A9
:100A3000801859412200002302F072FA0400D4E029
:100A4000786A002801D129002CE0012801D1022177
:100A500028E0022801D1042124E0032801D1062145
:100A600020E0042801D108211CE0052801D10A2139
:100A700018E0062801D10C2114E0072801D110212B
:100A800010E0082801D120210CE0092801D14021E3
:100A900008E00A2801D1802104E00B2801D12902B5
:100AA00000E029000948FFF724FB02000023100E94
:100AB0000343120200984008002180185941009A0F
:100AC000002302F02DFA04008FE000BF0024F400A0
:100AD00002F0B4F9796A002901D129002CE001293A
:100AE00001D1022128E0022901D1042124E00329B7
:100AF00001D1062120E0042901D108211CE00529AB
:100B000001D10A2118E0062901D10C2114E007299E
:100B100001D1102110E0082901D120210CE0092980
:100B200001D1402108E00A2901D1802104E00B29EC
:100B300001D1290200E029007C68FFF7DAFA0021E0
:100B4000020E1143000202000B0060080021801811
:100B500059412200002302F0E3F9040045E0786ADD
:100B6000002801D129002CE0012801D1022128E030
:100B7000022801D1042124E0032801D1062120E02C
:100B8000042801D108211CE0052801D10A2118E020
:100B9000062801D10C2114E0072801D1102110E012
:100BA000082801D120210CE0092801D1402108E0CA
:100BB0000A2801D1802104E00B2801D1290200E09C
:100BC0002900E803FFF795FA02000023100E034303
:100BD000120200984008002180185941009A002311
:100BE00002F09EF9040000E02E0004482018044999
:100BF000884207D23868C46036E200BF00FDFFFFBC
:100C000000FD0F002E002FE2E803F969814219462A
:100C100000D018E1002908D0022946D0042900D1CB
:100C200082E0082900D1BFE0FCE002F054F9796AC3
:100C3000002901D129002CE0012901D1022128E05D
:100C4000022901D1042124E0032901D1062120E059
:100C5000042901D108211CE0052901D10A2118E04D
:100C6000062901D10C2114E0072901D1102110E03F
:100C7000082901D120210CE0092901D1402108E0F7
:100C80000A2901D1802104E00B2901D1290200E0C9
:100C900029007C68FFF72DFA400061084018210008
:100CA000FFF727FA0400A4B2BDE0786A002801D15A
:100CB00029002CE0012801D1022128E0022801D1DD
:100CC000042124E0032801D1062120E0042801D1D9
:100CD00008211CE0052801D10A2118E0062801D1CD
:100CE0000C2114E0072801D1102110E0082801D1BF
:100CF00020210CE0092801D1402108E00A2801D177
:100D0000802104E00B2801D1290200E029007C6841
:100D10009148FFF7EEF94000610840182100FFF705
:100D2000E8F90400A4B27EE002F088F8796A0029AC
:100D300001D129002CE0012901D1022128E002295A
:100D400001D1042124E0032901D1062120E0042956
:100D500001D108211CE0052901D10A2118E006294A
:100D600001D10C2114E0072901D1102110E008293C
:100D700001D120210CE0092901D1402108E00A29F4
:100D800001D1802104E00B2901D1290200E02900D2
:100D90007C68FFF7AEF94000610840182100FFF7BA
:100DA000A8F90400A4B23EE0796A002901D1290023
:100DB0002CE0012901D1022128E0022901D10421DE
:100DC00024E0032901D1062120E0042901D10821D2
:100DD0001CE0052901D10A2118E0062901D10C21C6
:100DE00014E0072901D1102110E0082901D12021A8
:100DF0000CE0092901D1402108E00A2901D1802114
:100E000004E00B2901D1C10900E029007C68FFF74B
:100E100070F94000610840182100FFF76AF90400EA
:100E2000A4B200E02E00954821001039814208D27A
:100E30002100084061084907490F01433868C16033
:100E400012E12E0010E1002908D0022945D0042922
:100E500000D183E0082900D1BFE0FBE002F03BF8BD
:100E6000796A002901D129002CE0012901D1022150
:100E700028E0022901D1042124E0032901D106211F
:100E800020E0042901D108211CE0052901D10A2113
:100E900018E0062901D10C2114E0072901D1102105
:100EA00010E0082901D120210CE0092901D14021BD
:100EB00008E00A2901D1802104E00B2901D129028F
:100EC00000E029007C68FFF714F961084018210050
:100ED000FFF70FF90400A4B2BDE0786A002801D141
:100EE00029002CE0012801D1022128E0022801D1AB
:100EF000042124E0032801D1062120E0042801D1A7
:100F000008211CE0052801D10A2118E0062801D19A
:100F10000C2114E0072801D1102110E0082801D18C
:100F200020210CE0092801D1402108E00A2801D144
:100F3000802104E00B2801D1290200E029007C680F
:100F40000548FFF7D6F8610840182100FFF7D1F8EF
:100F50000400A4B27FE000BF0024F40001F06EFFA3
:100F6000796A002901D129002CE0012901D102214F
:100F700028E0022901D1042124E0032901D106211E
:100F800020E0042901D108211CE0052901D10A2112
:100F900018E0062901D10C2114E0072901D1102104
:100FA00010E0082901D120210CE0092901D14021BC
:100FB00008E00A2901D1802104E00B2901D129028E
:100FC00000E029007C68FFF794F8610840182100D0
:100FD000FFF78FF80400A4B23DE0796A002901D13F
:100FE00029002CE0012901D1022128E0022901D1A8
:100FF000042124E0032901D1062120E0042901D1A4
:1010000008211CE0052901D10A2118E0062901D197
:101010000C2114E0072901D1102110E0082901D189
:1010200020210CE0092901D1402108E00A2901D141
:10103000802104E00B2901D1C10900E029007C686E
:10104000FFF757F8610840182100FFF752F8040035
:10105000A4B200E02E00200010380849884202D2D5
:101060003868C46000E02E003800683029004180F4
:1010700005800021416081603000FEBDF0FF00006E
:101080002821415CC90706D501684A688D4B134089
:10109000C26A1A434A602821415C890706D5016863
:1010A0004A68894B1340026B1A434A602821415C0D
:1010B000490706D501684A68844B1340426B1A43BE
:1010C0004A602821415C090706D501684A68804BBF
:1010D0001340826B1A434A602821415CC90606D539
:1010E00001688A687B4B1340C26B1A438A602821CF
:1010F000415C890606D501688A68774B1340026C0B
:101100001A438A602821415C490612D501684A6861
:10111000724B1340426C1A434A60416C8022520366
:10112000914206D101684A686D4B1340826C1A43A4
:101130004A602821415C090606D501684A68694B66
:101140001340C06C184348607047F8B505002F0085
:101150007C370024FC6001F057FF06002868006817
:1011600000070AD560480090330022468021890399
:10117000280000F019F800280ED128680068400700
:101180000CD559480090330022468021C90328001D
:1011900000F00AF8002801D00320F2BD202078607A
:1011A000B8603C702046F2BDF8B5069E04000D0004
:1011B000684602701F002068C0692840A84201D11B
:1011C000012000E000206946097888421DD10020F6
:1011D000C0438642EFD001F017FFC01B864201D307
:1011E000002EE8D1206801685B4A0A40026020684E
:1011F000816801229143816020007C302021416080
:101200008160002101700320F2BD0020F2BD016861
:101210000A68C0239A430A6001688A684F4B1340EA
:101220008B60202180228150704701680A684C4BF6
:1012300013400B6001688A684A4B13408B60202181
:10124000842281500021C166704780B50100886A00
:101250000968096889060DD4002156228152016867
:101260008A6880239A438A600068016840220A43A2
:10127000026001BD01F02DFF01BD80B5806A01F063
:1012800039FF01BD10B50100886A2022096809688C
:10129000114013D100215E23C15201680B68394C03
:1012A0001C400C6001688B680124A3438B600168BB
:1012B0008B684024A3438B608421425001F044FF9B
:1012C00010BD0000FFFFFDFFFFFFFEFFFFFFFBFF64
:1012D000FF7FFFFFFFEFFFFFFFDFFFFFFFFFEFFFDE
:1012E000FFFF9FFFFFFFF7FFFFFFFF0180B5806A51
:1012F00001F02BFF01BD70B5846A25008035286898
:101300006E6821688968090607D5212805D1002063
:10131000562160522000FFF77AFF2068806840065F
:1013200008D5222E06D10020210056310881200048
:10133000FFF77BFFA86810210143A960200001F09E
:101340003FF970BD80B5806A0100563100220A81E4
:101350000A8001F035F901BD5FFEFFFFFFFF7FFF4F
:10136000DFFEFFFFFEFFFFEF80B501680A68402344
:101370009A430A602021802281500021016701F0F8
:10138000A8FE01BDFFFEFFFF10B5A14CA1482060E3
:10139000A14860600020A060E06020610C216161D4
:1013A000A061E06120626062A0622000FEF764FF3D
:1013B000002801D001F06EFA0021200001F051FF59
:1013C000002801D001F066FA0021200001F06DFF35
:1013D000002801D001F05EFA200001F023FF002870
:1013E00001D001F057FA10BD80B58C488C490160DE
:1013F000E1214902416000218160C16001610C224C
:1014000042618161C161016241628162FEF700FF58
:10141000002801D001F03EFA01BDF1B586B01422DA
:101420000021684601F0B2FF0698006879498842B9
:101430005FD17C49802080028A6802438A608A6882
:1014400010400590059801200A6802430A60096867
:101450000140059105990421009112210191002478
:1014600002940321039104906946A020C00501F075
:1014700097FF6D4F6D4D380028302860342068602C
:10148000AC60EC6080262E616C61AC612020E8616C
:101490002C62280000F0D4F8002801D001F0FAF9FD
:1014A000069885670698A86238003C30E8653520C4
:1014B000286610206866AC66EE662C676C67AC67C1
:1014C000EC6728005C3000F0BBF8002801D001F088
:1014D000E1F928005C300699486706988421685035
:1014E000224601211C2002F0ECF81C2002F0EDF84D
:1014F00059E04B49884256D18021C9024948826847
:101500000A438260826811400591059902240168AE
:101510002143016001682140059105990126016878
:1015200031430160006830400590059800960194B1
:1015300000250295032003900427049769463C4840
:1015400001F02EFF202000900194029603200390CA
:1015500004976946A020C00501F022FF334804002B
:101560008434314961633721A1631021E16325642B
:1015700080216164A564E564256565650500B8356D
:10158000280000F05DF8002801D001F083F90698EA
:1015900045670698E065002231461D2002F091F86B
:1015A0001D2002F092F807B0F0BD10B504002068CD
:1015B0001849884213D11F4801681F4A0A40026037
:1015C0000421A020C00501F0A1FFA06F00F087F862
:1015D000606F00F084F81C2002F07BF810BD104909
:1015E000884213D113480168144A0A40026001215D
:1015F0000F4801F08BFF2021A020C00501F086FFDD
:10160000606F00F06CF81D2002F063F810BD000060
:10161000684300200044004040420F00F443002093
:1016200000480040341002400800024024410020DD
:10163000000400503C100240FFFFFDFFFFFFFBFFD6
:1016400038B5040001D1012032BD2068AD494018F1
:101650001421FEF74EFD80002064022025216054F5
:1016600020680168A84A0A40026020680168A268F0
:10167000E368134322691A4363691343A2691A4357
:10168000E3691343226A1A430A430260200000F010
:10169000D4F90025A0688021C901884200D1656085
:1016A0002079616C0860E06CA16C4860606800287B
:1016B0000AD0052808D2200000F0D4F9206D05607A
:1016C000A06D616D486002E025656565A565E5630F
:1016D00001202521605424202554284632BD70B5B0
:1016E000040001D1012070BD2068016801229143EE
:1016F00001602068834940181421FEF7FAFC80003D
:10170000206400252068056080480168012240238C
:10171000E35C1C261E40B2400A430260200000F039
:101720008CF9606C0560E06CA16C48606068002812
:1017300009D0052807D2200000F094F9206D05603B
:10174000A06D616D4860E56225636563A5632565ED
:101750006565A565E563280025216054242025548E
:10176000284670BDF3B581B0040000252F00242069
:10177000205C012801D10220FEBD01263000242179
:10178000605402202521615C012932D1009225217B
:101790006054E56320680168324691430160009A15
:1017A0000299200000F024F92068216B00290168CB
:1017B00003D00E220A43026007E004229143016035
:1017C000206801680A220A430260606C0168C9034C
:1017D00003D5016832020A430260206D002803D05D
:1017E000016832020A430260206801680E43066005
:1017F00003E029002422A1540700242025543800A6
:10180000FEBD70B4002801D1012036E02521415CE5
:10181000022906D00421C163002124228154012021
:101820002BE001680A680E239A430A60426C6E49F5
:1018300013680B401360026813680124A34313600C
:101840002246324B1C684025455D1C262E40150063
:10185000B54025431D60C36C846C6360036D002B31
:1018600005D01C6821401960816D436D59602521A8
:101870004254002124228154084670BC7047F8B5B8
:1018800000210C000A002423C25401263200C25455
:101890002522825C022A03D00421C16334002EE099
:1018A000026813680E25AB4313600268136835465F
:1018B000AB431360436C4C4A1D6815401D60134BCD
:1018C0001D68AC464025475D1C253D403700AF40B4
:1018D00065462F431F60C36C856C6B60036D002BE6
:1018E00005D01D682A401A60826D436D5A6025221A
:1018F000865424228154816B002900D0884720001F
:10190000F2BD0000F8FFFDBF0F80FFFF04000240A2
:10191000FEB55B490A680192026813681C24056CD5
:1019200025406E4635700425019EB4466E463678D5
:101930002F00B7406646374013D02B4211D01368B2
:101940009B0603D413682E46B34313604A68036CA6
:101950001C40A54015434D60016B002943D08847CA
:10196000F7BD02256E4636782F00B74066463740F1
:1019700019D02B4217D013689B0606D413680A2689
:10198000B343136001222523C2544A68036C1C40F0
:10199000A54015434D60002124228154C16A0029CD
:1019A00021D08847F7BD08256E4636782F00B7400E
:1019B0006646374017D01D4015D013680E25AB433F
:1019C000136001224B68056C2C401500A5401D4397
:1019D0004D60C26325214254002124228154416B71
:1019E000002900D08847F7BDFFFEFFFFC06B70479E
:1019F000F0B4C46C856C6C60046D002C02D0846DF6
:101A0000456D6C601F4C26680127BC464025475D2C
:101A10001C253D406746AF4037432760046863603C
:101A200003688468102C03D19A600068C16002E0EA
:101A300099600068C260F0BC704710B5040020785F
:101A400008381421FEF755FB216C032291430E4AFE
:101A5000891861640D49A16401211C220240914052
:101A6000E16410BD01798A00094BD2180265094A68
:101A700042650122491E8907890F8A4082657047A5
:101A800000000240040002400008024080080240BA
:101A9000FC08024040090240002101704170C02151
:101AA00009010D4A8150704710B50C4C2000FFF71A
:101AB000F3FF01F02FFE0A4801680A682023134350
:101AC0000B6001680A68102313430B60C0221201E7
:101AD000A11CFEF77CFC10BD04300000EC020020CD
:101AE00068430020F8B504002078AA282FD1607838
:101AF00055282CD1A078C11EC9B20091E1780A0006
:101B000015020200154322791300009EA619B6792A
:101B1000009FE7197F79662F01D1BB2E08D0662E72
:101B200004D1009EA619F679BB2E01D00220F2BD89
:101B300004280ED100290CD1012A0AD1607900288D
:101B400007D1AA48C068002803D00120F2BD0320B5
:101B5000F2BD012B0ED0022B23D0032B36D0042B49
:101B60004ED0052B5ED0062B00D180E0102B00D18B
:101B700087E035E1052D02D101209C4908709C4D7C
:101B800000229621280001F0D9FEA278A11C28008D
:101B900001F01CFF6379012211460D2001F024FFA2
:101BA0001EE1934D00229621280001F0C7FEA27885
:101BB000A11C280001F00AFF6379022211460D20C2
:101BC00001F012FF002002F0E6FB09E1042D02D033
:101BD000052D00D004E1864D00229621280001F059
:101BE000ADFEA278A11C280001F0F0FE637903226B
:101BF00011460D2001F0F8FE002002F0CCFBEFE0D2
:101C00007B4D00229621280001F098FEA278A11CAD
:101C1000280001F0DBFE6379042211460D2001F05B
:101C2000E3FEDDE0714E707A012802D1B07A401CEB
:101C3000B0723069002804D06EA002F013FC0120BD
:101C4000F2BD01F0E1F930610F2D00D0C8E0A07ABB
:101C50000302607A0343207A0202E0790243A0790A
:101C6000010260790143082001F0BEFEB8E0192DA1
:101C700000D0B5E000231A461146092001F0B4FE59
:101C8000AEE0042D00D0ABE06079AA284FD100BFB0
:101C90005FA002F0E7FBCC2060718E48017800293C
:101CA0002DD1012101706079CC2800D08EE04F4DFC
:101CB0004021A020C00501F09FFC002805D100BFF5
:101CC00058A002F0CFFB0120A8704021824801F00B
:101CD00093FC00285BD181480068002857D1A8797F
:101CE000002854D1012420007D49087000F0EAF852
:101CF0006C7100BF52A002F0B5FB2046F2BD794ADC
:101D0000002302290CD101210170137001F07CF92C
:101D10003649C86003227449744802F08DF9C2E75D
:101D2000037010780028BED102F0D8FCBBE7BB28B6
:101D300023D12E4DE879012817D12D4E002296216E
:101D4000300001F0FBFD0420307000242000707092
:101D50000120B0700320F07023461A4606210D20A2
:101D600001F042FEEC710120F2BD00231A4611463B
:101D70000B2001F039FE0120F2BDEE2893D10023A3
:101D80001A4602210E2001F02FFE0120F2BDE87854
:101D9000401CE870C0B2052805DD0020E87002F0A4
:101DA0009DFC0120F2BD012002F0F5FA02F093FB48
:101DB0004C480178012906D1002101700120974982
:101DC000087002F0DEFA02F086FB09E0DD2806D199
:101DD00000231A461146052001F006FE00E000BF70
:101DE00000200100217060700120F2BD0800002079
:101DF000D042002073656E736F725F646174615FBF
:101E0000736B69705F7469636B200D0A00000000DA
:101E1000466972737420495251205369676E616C30
:101E2000200D0A0049525120454E202D3E20495296
:101E30005120526571756573742121200D0A0000CF
:101E400021212121210D0A00F8B500242000C02104
:101E50000901734A126852688A1A214D714969183A
:101E60000B689A422CD0934202DBC026360100E078
:101E700026009219D21A07E0AE1C0F68F75D6A4E71
:101E80009F550B685B1C0B6013005A1E002B13D070
:101E90000B68C0263601B34200D30C602B18401CDF
:101EA0002E78012EE8D0AE1C0F68F75D5F4E9F556F
:101EB0000B685B1C0B60E7E75C482818FFF712FE15
:101EC0002C70F1BD80B5082259495A48FEF72DFA09
:101ED00001BD0000C547002000040050E04700207D
:101EE000EC020020C74700203842002004460020B2
:101EF000F8B507000C0016001D00012101F0FAFCE6
:101F0000002805D0022831D017D303282ED053E063
:101F1000AA202070552060700320A0700025E57075
:101F20000146380001F0E6FC207165716620A07161
:101F3000BB20E0710820C0B2F2BDAA20207055205D
:101F400060700420A0700025E5700321380001F0C6
:101F5000D1FC207165712946380001F0CBFCA071DD
:101F60006620E071BB2020720920E4E76846057016
:101F7000AA202070552060700420A0700025E57014
:101F80000321380001F0B6FC207165712946380044
:101F900001F0B0FCA071684602783100E01D01F04C
:101FA00015FD6846007820186621C171BB210172B9
:101FB000684600780930BEE70020F2BD70B51E4DBE
:101FC000A6482E180022811E300001F0B7FCAA207E
:101FD000307055207070A2480478B4704178F17068
:101FE00081783171002171712200D21EC11C9D487F
:101FF000281801F0EBFCE41CE4B22200A818974971
:10200000401866210170BB21417001202870921C8C
:10201000D2B231009448FEF788F970BDD447002051
:1020200024410020043000000224000002180000B7
:102030000000002068430020EC02002070B506007C
:1020400000242500401E1E285AD802A14000095A2B
:102050008F4400BFA600E400F200000108015C010B
:1020600018011001200132013A014A017A018A0166
:102070009201A401B2018200BC019400C401CC0110
:10208000D401E801F001F8013E0042015401AC0026
:102090000002764D71482E182246811E300001F054
:1020A0004DFCAA203070552070706D480278B270D7
:1020B0004178F1708078307174716620B071BB2006
:1020C000F07101202870521DD2B231006648FEF72F
:1020D0002CF9204670BD664802F0C4F9FFF76EFF88
:1020E00002F04FF9204670BD77A002F0BBF9FFF770
:1020F00065FF02F046F9204670BD5E4802F0B2F975
:102100005A48012101705549441800235A4A2100B8
:102110003000FFF7EDFE020021005348FEF705F9FD
:10212000002802D070A002F09DF9012D02D10020FC
:1021300002F031F9002070BD73A002F093F9012084
:102140004E49C871DCE7204602F025F94C4802F000
:1021500089F9D5E74B4802F085F9D1E74A4802F002
:1021600081F9CDE7494802F07DF9C9E7484802F016
:1021700079F9C5E70120474908704048447046484E
:1021800002F070F9BCE7454802F06CF9B8E7444842
:1021900002F068F9B4E7434802F064F9B0E700BF21
:1021A00061A002F05FF9ABE73F4802F05BF9A7E7F7
:1021B0003E4802F057F900BF63A002F053F92F48E0
:1021C000C4602100C17184710121017298E700BFD0
:1021D00061A002F047F9FFF7F1FE204670BD3448D8
:1021E00002F040F98CE700BF63A002F03BF9012543
:1021F00002203049087083E765A002F033F902201D
:102200002C4908707CE700BF68A002F02BF977E743
:102210006DA002F027F973E773A002F023F96FE7CE
:1022200079A002F01FF96BE70120144908712248D8
:1022300002F018F9FFF7C2FE204670BD1F4802F0F9
:1022400011F95DE71E4802F00DF959E71D4802F04B
:1022500009F955E7FFF7B2FE204670BD020C0000F9
:1022600038420020080C000068430020EC020020E7
:10227000B4BE0008D8BE00081C00002008000020E2
:1022800004BF000830BF00085CBF000888BF00081A
:10229000B4BF0008C7470020DCBF000804C0000826
:1022A00028C000084CC0000878C00008A0C0000882
:1022B000C8C00008C5470020F0C0000814C10008CD
:1022C00038C1000860C10008444154415F434F4D8C
:1022D0004D414E445F57524954455F464C41475F1C
:1022E0004652414D450A000048414C5F5541525409
:1022F0005F5472616E736D69745F444D4120657205
:10230000726F72200D0A0000444154415F434F4DEB
:102310004D414E445F4745545F4D4F44455F4652E3
:10232000414D45200A000000444154415F434F4D58
:102330004D414E445F53544152545F46575F555090
:102340004752414445200A004B42442052454144F3
:102350005921200D0A000000444154415F434F4D74
:102360004D414E445F57524954455F504147455F88
:102370004652414D45200A00444154415F434F4D70
:102380004D414E445F474F5F4652414D45200A0044
:10239000444154415F434F4D4D414E445F41424F94
:1023A00052545F4652414D450A0000004441544199
:1023B0005F434F4D4D414E445F45524153455F464B
:1023C00052414D450A000000444154415F434F4D86
:1023D0004D414E445F524541445F53455249414C43
:1023E0005F4652414D450A00444154415F434F4DC1
:1023F0004D414E445F524541445F464C41475F4624
:1024000052414D450A000000444154415F434F4D45
:102410004D414E445F524541445F4D435549445FF1
:102420004652414D450A0000017800290CD003298D
:1024300013D0042950D006291ED0072931D01229E3
:1024400037D0882940D0B9E0417800292FD1807851
:1024500000282CD10020C04370474178002904D1C6
:102460008278012A01D10020704700291FD180788D
:1024700008281CD11B2070474178002907D1827899
:10248000012A04D1C278432A01D1142070470029BF
:102490000DD1817801290AD1C078462807D11720AB
:1024A00070474178002902D1807801283BD01F2055
:1024B000704741780029FAD181780129F7D1C07895
:1024C0004128F4D11220704741780029EFD1C0781B
:1024D0001428ECD10D2070478178012947D1C078AC
:1024E000002820D0012820D0022820D0042820D085
:1024F000052820D0062820D0112820D0122820D04E
:10250000132820D0152820D0162820D0172820D016
:10251000402820D0422820D0442820D0452820D050
:10252000472820D021E00120704702207047032077
:1025300070470420704708207047092070470A2020
:1025400070470B2070470C2070470E2070470F20FB
:1025500070471020704711207047132070471520D6
:10256000704716207047182070471F2070470229B7
:1025700016D1C078182801D105207047122801D142
:102580001C207047132801D11D207047192801D144
:10259000072070471A2801D1062070471F20704776
:1025A000052909D1C078202801D119207047212898
:1025B00000D07CE71A2070471F2070471F2070470B
:1025C00080B50A4988420BD10BA001F04BFF0848A7
:1025D0000078012801D101F0FCFE02F0CBF801BD2A
:1025E0000449884200D100BF01BD000068430020BB
:1025F0000B480020F443002048414C5F55415254A1
:102600005F4572726F7243616C6C6261636B200D27
:102610000A0000007CB502F08DF900F069F8012491
:10262000884D286C20432864286C20400090009836
:10263000082002F091F9102002F08EF9286861025A
:102640000143296002F092F902F014FA02F038FA1C
:1026500002F082FAFEF7C8FE02F08EFB02F0E0FB09
:1026600002F0A2FA02F00AFCFEF78EFE02F062FC13
:102670008BA001F0F7FE744D280001F0F3FE280056
:10268000243001F0EFFE280001F0ECFE00256F4E33
:102690002800307002F04DFE6D4829000170417035
:1026A0008170C17003F027F86A48056028006A4904
:1026B00008706A4908706A4908706A4908706A496E
:1026C00008706A4805606A4803F072F8284601F00D
:1026D00082FF284602F0AAF8664803F0A0F9002815
:1026E00004D000F0D7F801F0B9F9FCE77470FAE70C
:1026F000F0B59FB00022382104A801F02FF9002284
:102700001021684601F02AF90022342112A801F0B4
:1027100025F98027BF00380003F0C6F90A2004908D
:10272000F6300790002508954020099001200A9076
:1027300002260B960C960D9508240E9440040F90DB
:10274000000210900001119004A800F0C5F80028C4
:1027500001D000F09FF807200090019602950395A4
:102760003146684600F0BAFA002801D000F092F82D
:10277000414812901494A0021690802000061A90EE
:102780001E9712A803F0B6F9002801D000F082F8D5
:102790001FB0F0BD364800680068F0210901014013
:1027A00000D0704780B5012002F0ADFA01BDF8B548
:1027B00000242600250080277F0038000100A0208B
:1027C000C00500F019FF00281ED10421A020C0057B
:1027D00000F012FF012817D1284801F043FE012024
:1027E00001F0F9FE2000390301E000BF401C8842DF
:1027F000FBDB204601F0EFFE01F070FF01E000BFBF
:10280000641CBC42FBDBF1BD10484078002818D0A6
:10281000184803F043F92D18761C200001E000BF92
:10282000401CB842FBDB1F2EF2DB002D23461A466C
:10283000114603DD0A2001F0D7F8F1BD012001F0B7
:10284000D3F8F1BD0010024024CA0008C54700209B
:10285000AC470020D84700200C0000200A48002088
:1028600009000020100000200C480020FC47002038
:10287000044600202047002042400200E8CA000829
:1028800001688022D205914200D0704780B501F0E6
:1028900028FE01BD80B500BF06A001F0E3FD01BD2B
:1028A0000D0A0A0A0A0A0A0A0A0A0A0A0A0A0A0A85
:1028B0000A0000004572726F725F48616E646C6559
:1028C00072200D0A0000000002480168E020C001EB
:1028D0000840704708100240F8B5050000D1F0E14B
:1028E000B04C2878C00712D5A16838200840E168AC
:1028F0008907890F102801D1032901D0082862D146
:102900002068800303D56868002800D1D9E12878C1
:10291000800734D5A16838200840E1688907890F0D
:10292000102801D1022902D0002800D088E02168B7
:10293000490503D5E968002900D1C2E16168BE4AB2
:102940000A406969090211436160002810D12068BA
:10295000BA490140286908432060B948012122682A
:10296000D20A5207520F9140FDF7C3FBB5490860E8
:10297000B548006803F0CAF9002800D0A1E1287822
:1029800000070CD5A06838210140182900D089E043
:10299000206E800703D5A869002800D191E128782E
:1029A000400700D406E10027A06838210140202913
:1029B00000D09CE0E06D800700D4FBE0A868002810
:1029C00000D0F7E07DE1696880204002814203D1B8
:1029D00021680843206013E0A022D202914207D16F
:1029E000216882000A43226021680843206007E0D2
:1029F0002068B649014021602068B5490140216046
:102A00008027BF02686800280DD000F0FDFA06009C
:102A10002068384000D07AE700F0F6FA801B65287D
:102A2000F6D30320F2BD00F0EFFA0600206838402C
:102A300000D16CE700F0E8FA801B6528F6D3F0E7D8
:102A4000270DE868002820681CD07C4901402869CF
:102A5000084320602068A10D0143216000F0D4FAF2
:102A600006002068384005D100F0CEFA801B03280C
:102A7000F7D3D6E7606870490140686900020843EF
:102A800060607CE793490140216000F0BDFA0600D8
:102A90002068384000D172E700F0B6FA801B0328A6
:102AA000F6D3BEE70227A8690028206E0FD00121C7
:102AB0000143216600F0A8FA0600206E384000D0DD
:102AC0006DE700F0A1FA801B0328F6D3A9E70121E6
:102AD0008843206600F098FA0600206E384000D146
:102AE0005DE700F091FA801B0328F6D399E7802078
:102AF0004005E16B014007D1E16B0143E163E16B0C
:102B0000084000900098012773480068C00512D45F
:102B100071480068A10D01436F48016000F074FA2C
:102B200006006D480068C00505D400F06DFA801BF2
:102B30000328F6D375E7A868012804D1E06D0121C8
:102B40000143E16511E00528E06D07D1042101434F
:102B5000E165E06D01210143E16506E00121884363
:102B6000E065E06D04218843E065A86800280CD08A
:102B700000F04AFA0600E06D800715D400F044FA30
:102B8000801BAA498842F6D34BE700F03DFA0600C5
:102B9000E06D800708D500F037FA801BA349884212
:102BA000F6D33EE700100240012F03D1E06BA049AD
:102BB0000140E163E869002800D184E0A16838227F
:102BC0000A40102A58D08027BF049A49022820685A
:102BD0003CD10140216000F017FA0600206838401F
:102BE00005D000F011FA801B0328F7D319E7E0683D
:102BF00091490140286A0843696A0143A86A0002B2
:102C00000843E96A0143286B0843696B0143E160AB
:102C10002068790801432160E068F9000143E16020
:102C200000F0F2F90500206838404CD100F0ECF9D2
:102C3000401B0328F7D3F4E6FF80FFFFFFC7FFFF29
:102C40000024F400240100201C0100200140216028
:102C5000E06803218843E060E068A6490140E16044
:102C600000F0D2F90500206838402CD000F0CCF9F3
:102C7000401B0328F7D3D4E6012822D0E06881075F
:102C8000890F2A6A91421CD1702101406A6A9142DF
:102C900017D1FE21C9010140AA6A1202914210D146
:102CA000F82189030140EA6A91420AD1E02109052D
:102CB00001402A6B914204D1400F4007696B884262
:102CC00001D00120F2BD0020F2BD0000FFFFFEFF99
:102CD000FFFFFBFFFFFEFFFF00700040F8B507009D
:102CE00065D00091844800684007400F884218D2A0
:102CF000814C20680721884300990143216000F03E
:102D000083F9009D060020684007400FA84207D0C5
:102D100000F07AF9801B45498842F4D30320F2BDC4
:102D200000953968764C022001420CD0490704D541
:102D3000A168E022D2010A43A260A1686F4A0A405A
:102D4000B9681143A1603978C90732D5796801297A
:102D500018D1206880032AD5A06807229043014338
:102D6000A16000F051F90500A068382101407868A1
:102D7000C00081421DD000F047F9401B2B4988421A
:102D8000F2D3CBE7022903D120688001E4D40EE01E
:102D9000002903D120684005DED408E0032903D1CF
:102DA000226E1040D8D102E0E26D1040D4D1012053
:102DB000F2BD0098504909684907490F884218D266
:102DC0004D48006807218843009901434A48016043
:102DD00000F01AF9009D0600474800684007400FC0
:102DE000A84206D000F010F9801B10498842F3D3A6
:102DF00094E73878400705D5A06842490140F86853
:102E00000843A06000F01AF83F49A268120A1207AE
:102E1000120F9200895CC906C90EC8403B49086080
:102E20003B48006802F072FFF2BD00008913000009
:102E3000FFFFFFEFFFFFFFFE8C80C11130B5304C6C
:102E40003820A168014009D101212068C00A40074B
:102E5000400F81402F48FDF74CF930BDA16801407B
:102E6000082901D12C4830BDA168014010291FD18B
:102E7000E0688007800FE16809094907490F491C8C
:102E80007F25032807D12448FDF733F9E168090AB3
:102E90000D40684306E01F48FDF72BF9E168090A79
:102EA0000D406843E168490F491CFDF722F930BD28
:102EB000A1680140202902D18020000230BDA16814
:102EC0000840182802D1FA20C00130BD002030BDD2
:102ED0000E480068704710B5FFF7FAFF0400FFF7CF
:102EE000F3FC0E49000B8000085CC006C00EC44015
:102EF000200010BDFFFFFEEE00200240FFF0FFFFAC
:102F000000100240FF8FFFFF6CCA00082401002060
:102F10001C0100200024F40000127A00FCCB000801
:102F2000124224D0994228D970B500251B4202D004
:102F30000C00002109E00024012649186441944254
:102F400000D3A41A7641F8D33100012601E076417E
:102F500009D2001864416D41A41A9D41F7D2A4180A
:102F60005D41B619F5D3300022002B0070BD1B4225
:102F7000D8D108B502F0F6FE08BD01D19042D3D2F7
:102F800002000B00002100207047F1B401684218D4
:102F900041684808131800988068C9071ED549463B
:102FA00040181BE01778521C0770401C761EF9D1A0
:102FB000002C13D01678521C89080D40032D01D126
:102FC0001578521C290271184D424119A41C05D0D4
:102FD0000D78491C0570401C641EF9D19A420FD02F
:102FE0001178521C032503260E4002D11678F61CD8
:102FF000521C0C090F2CD9D114780F34521CD5E770
:1030000000980C30F2BC704701480068704700BF60
:103010001801002070B40BE0641C04800C78C31805
:103020001C71491C0388454CA34201D9002303802D
:1030300013005A1E002B08D0048823001D006D1CAD
:10304000ED05ED0D4688B542E6D170BC704710B471
:103050000DE01C00641C4480C3181B790B70491CD4
:1030600043888024A400A34201D30023438013009B
:103070005A1E002B03D043880488A342E9D110BC18
:10308000704741880088884202D28022920000E086
:1030900000228018401A704770B50500FFF7F1FF55
:1030A000802801D9802403E02800FFF7EAFF04000C
:1030B00000F025F800280BD0812080002E18220077
:1030C00031002800FFF7C3FF2100300000F021F895
:1030D00070BD1B49884200D0704710B5FDF7D2F98A
:1030E000184C2000FFF7CDFF002802D02000FFF78A
:1030F000D3FF10BD1249884200D100BF704710486D
:10310000406F2521405C012801D10120704700203B
:10311000704780B50A0092B201000948FDF705F931
:1031200002BD38B51500012806D1064C2000FFF776
:1031300071FF2000FFF7B0FF280032BDFF01000043
:10314000F44300203439002070477047FEB5070073
:1031500008001100002635007C22BA5C012A01D14A
:103160000220FEBD6A4603C2012420007C2178545F
:10317000242039007C314860386801682246914338
:103180000160386881685B4A0A4000991143816098
:103190000098002806D1684603C80A0001003800DC
:1031A00000F0B0F8386801680C430460FFF72CFFAA
:1031B00003003C007C34504800902A468021C9031B
:1031C0003800FDF7F1FF002801D0032501E02020A1
:1031D000606026702800FEBD7C21415C012901D180
:1031E0000220704701217C22815401680A68022371
:1031F00013430B6000217C228154084670477C21D8
:10320000415C012901D10220704701217C228154B7
:1032100001680A6802239A430A6000217C228154D3
:103220000846704730B47C21415C012901D102205D
:1032300015E001007C3101220A7024224A600268F4
:10324000136814680125AC431460002242662B4CBD
:103250001C4000680460202048600A70104630BCA2
:10326000704770B504007C20205C012801D1022049
:1032700070BD26007C3601203070242070602068EC
:103280000568026801239A43026020688268D200C0
:10329000D20811438160200000F048F820680560E2
:1032A000202070600020307070BD70B504007C205C
:1032B000205C012801D1022070BD26007C3601204F
:1032C00030702420706020680568026801239A43EA
:1032D0000260206882680A4B134019438160200015
:1032E00000F024F820680560202070600020307015
:1032F00070BD0000FFFFCFFFFFFFFF01FFFFFFDFFB
:10330000FFFFFFF106B401684A6810239A436B4639
:103310009B881A434A60006841680902090A6A46A4
:10332000927912060A43426002B07047FFB502A9C3
:1033300012A218CA18C1694612A218CA18C10400FC
:103340006834416E002903D1012060802080FFBDD8
:1033500000688168490E4D076D0F8068410F6E4609
:1033600002AF785CC000715CFCF7C0FE6080785DE5
:10337000C000715DFCF7BAFE2080FFBD01010103B2
:1033800007010000080402040801010110B504004F
:10339000080011000200200000F0D0FA200010BD4B
:1033A000FFB40A000023010032E0052403E0994C39
:1033B000A142FAD10400AC40344300980460964C1A
:1033C0002568019EF04305405668F60302D52E009D
:1033D000019D35432560656805405668B60302D5F2
:1033E0002E00019D35436560803C25680540566888
:1033F000F60202D52E00019D354325606568284000
:103400005568AD0202D505000198284360605B1C39
:1034100010680400DC4077D0012425009D4003950E
:103420000540019501980028F1D05068022801D08C
:10343000122811D1D80880000D18286A1E00B70084
:103440001C263E400F27B740B8431769BC463700DB
:103450006646BE4006432E620D68180040006E4668
:103460003070032037780600BE40F74302973E468F
:103470002E40556805406F463F78BD4035430D608E
:103480005568012D05D0022D03D0112D01D0122D2C
:1034900011D18E68029D3540D6686F463F78BE4098
:1034A0002E438E604D68039EB5435668360926400C
:1034B0009E402E434E60CE68029D354096686F4612
:1034C0003F78BE402E43CE605568ED009FD5534DEA
:1034D0009E08B600AD1900952E681D00EF00182556
:1034E0003D400F27AF40BE43A027FF05B94201D1A1
:1034F000002460E74A4FB94200D15CE7494CA14241
:1035000000D054E7022456E7FFBC7047F0B485B002
:10351000002241E0052403E03E4CA042FAD10324FE
:103520006E463678B440A54215D1039DEC433A4D22
:103530002E6826402E606E6826406E60803D2E68A4
:1035400026402E606E6834406C60019C2468029DA9
:10355000AC43019D2C60032415006D00AC40056850
:1035600025430560D508AD0045192E6A0096BC4676
:103570001600B7001C263E406746B740009EBE437B
:103580002E62E54384682C40846044689C43446018
:10359000C3681D40C560521C0B00D34029D00124D4
:1035A000230093401D000D400395039D002DF2D094
:1035B0001A4D9608B600AD1901952D6804951500B1
:1035C000ED0018262E406D462E700F273D00B540A9
:1035D0000295049E3540A026F605B04201D1002494
:1035E0009EE70F4EB0429BD00E4CA04294D10224D5
:1035F00096E705B0F0BC704700690840401E804166
:10360000C043C00F7047002A01D0816170478162BA
:1036100070470000000C0050801802406018024003
:103620000004005000080050010005D40121C0062C
:10363000C00E81402B4801607047010009D4012170
:10364000C006C00E814028480160BFF34F8FBFF312
:103650006F8F704710B4C20018231340FF249C40A2
:10366000E2438901C9B29940030008D41F489B086E
:103670009B00C01803681A40114301600AE01C4B0C
:103680000007000F083880088000181803681A40E7
:103690001143016010BC704710B5401E80214904E1
:1036A000884201D3012010BD124C6060032100202C
:1036B000C043FFF7CFFF0020A0600720206000205C
:1036C00010BD80B5FFF7C6FF01BD80B5FFF7ACFFA9
:1036D00001BD80B5FFF7B1FF01BD80B5FFF7DCFF8D
:1036E00002BD000000E100E080E100E000E400E055
:1036F0001CED00E010E000E0F0B4049C8E4D0600EC
:10370000B700BE19AD1928706970AA70EB702C71E2
:10371000F0BC704780B503200090012300221146C1
:103720000846FFF7E9FF0420009001231A46002114
:103730001046FFF7E1FF0420009001231A461146CE
:103740000220FFF7D9FF0420009001231A4602212E
:103750000320FFF7D1FF0420009001231A46014601
:10376000FFF7CAFF042000900223012212211C202F
:10377000FFF7C2FF04200090022301221821052038
:10378000FFF7BAFF04200090022301221A2106202D
:10379000FFF7B2FF04200090022301221921072025
:1037A000FFF7AAFF042000900223012213211D200D
:1037B000FFF7A2FF0420009001231A4605210820EC
:1037C000FFF79AFF0420009001231A4606210920E2
:1037D000FFF792FF0420009001231A4611210A20CE
:1037E000FFF78AFF0420009001231A4612210B20C4
:1037F000FFF782FF0420009001231A4613210C20BA
:10380000FFF77AFF882000900123032214210D2066
:10381000FFF772FF882000900123032215210E205C
:10382000FFF76AFF0420009001231A4616210F209B
:10383000FFF762FF0420009001231A461721102091
:10384000FFF75AFF0420009001231A46402111205F
:10385000FFF752FF12200090012302224121FFF7BF
:103860004BFF0420009001231A4642211320FFF74A
:1038700043FF062000900123032243211420FFF779
:103880003BFF052000900123022244211520FFF771
:1038900033FF0420009001231A4645211620FFF72C
:1038A0002BFF062000900123032246211720FFF75B
:1038B00023FF0420009001231A4647211820FFF718
:1038C0001BFF042000900523012220211920FFF76F
:1038D00013FF042000900523012221211A20FFF765
:1038E0000BFF042000900523012222211E20FFF758
:1038F00003FF01BD002905D002290FD008D30329F9
:1039000012D017E00C498200101808184078704750
:10391000094982001018081880787047064982000B
:103920001018081800797047034982001018081809
:10393000C0787047FF207047F03F00201206130A3E
:103940001A43130C1A4300BF094205D083070BD05A
:103950000270401C491EF9D1704700001206130A7C
:103960001A43130C1A4300BF1300103906D330B4A6
:103970001400150010393CC0FCD230BC490700D3FC
:103980000CC000D504C0890002D30280801C00292D
:1039900000D5027070472E0070B4103A03D378C976
:1039A000103A78C0FBD2530701D318C918C001D50B
:1039B00008C908C0D20704D30B880380891C801C67
:1039C000002A01D50B78037070BC70478B0701D1BA
:1039D0008307E1D0124205D00B78491C0370401CCC
:1039E000521EF9D170474300F0B41A4C25681A4EA4
:1039F0002F01F61930707160B260F3606D1C2560A4
:103A0000642D01D300202060F0BC7047F0B4114C4D
:103A100065682668AE4201D1002011E00E4E2F01EC
:103A2000F6193778077070680860B0681060F06841
:103A300018606D1C6560642D01D30020606001205A
:103A4000F0BC70470448034949680901405C70476D
:103A500000000000EC470020F4320020FEB5B04C1E
:103A60002300083322001432211D20001030FFF7FC
:103A7000CDFF012800D004E2207C401E0E2800D992
:103A8000FFE102A14000095A8F4400BF1E0032002E
:103A90005600C4005E026A02E2039802DA037E0066
:103AA000D000F6033E010601F003BC4800F0DAFC4A
:103AB000BB4802F0ACF9BB4802F08FFAF7BDFFF744
:103AC000C1FF022800D1DCE10120B7490870FFF7EF
:103AD0009BFAB6490860B64800F0C4FC00F098FDB7
:103AE000F7BD00200100B04A1170B0490860FFF72F
:103AF000A9FF032800D1C4E1AE4800F0B3FC0020C8
:103B000000F069FD00F0EAFDF7BDAB480068C1694F
:103B10004906FAD5C1690906FCD502F02FFC72B638
:103B2000A648A7490968C969014081420AD0A54849
:103B3000A549096889690140814203D001218803B0
:103B400002F024FC62B602F043FC02F049FCF7BD2F
:103B5000012000F020FC00F0BEFCF7BD9B4800F007
:103B600081FC01209A49087000200100C54A1170AB
:103B7000608291480068C1694906FAD5C1690906A1
:103B8000FCD502F031FC01F0F9FBBF4800F06AFC03
:103B9000F7BDFFF757FF0E2800D172E1C04C012599
:103BA0004021A020C005FFF727FD002802D12800F2
:103BB000207004E0284600F0EEFB00202070280072
:103BC000BD490870B1480570F7BD606804280DD183
:103BD000B04DE978AE4800F045FC74480168002912
:103BE00004D0E978012901D1002101606068022830
:103BF00027D1207BA34C2578012801D0002D0FD0A0
:103C0000A44E3778002296213000FFF797FE3770D8
:103C1000022D39DB002001006D4A1170207033E065
:103C2000022831D19B4C002296212000FFF786FE0E
:103C300004200100217000216170A0700320E07059
:103C400022E0032820D120892080207B012808D170
:103C50002178C90705D5207AFE2101408D48C17021
:103C600012E0022810D12078C0070DD5894C00221F
:103C700096212000FFF762FE042001002170002140
:103C80006170A0700320E07083480178012901D1A0
:103C90000021017081480178012910D100210170B3
:103CA0004148007800280AD17A480178032906D1D2
:103CB0004178002903D18078012800D1E1E000F0AB
:103CC00069FA77480178012900D0DAE00024210060
:103CD0000170084600F05FFB01E000BF641CFF2C90
:103CE000FBDD012000F057FBF7BD002000F053FB87
:103CF00000F0F1FBF7BDA088208020780100C90703
:103D0000C90F00912088800943075B0F2088400875
:103D1000C206D20E6168C9B2624800F0A3FBF7BDCB
:103D2000A04700206D466068288060696880A068B0
:103D3000A8800020285E02F0BDFB5BA20CCA02F046
:103D4000C3FB02F083FC28800220285E02F0B2FB55
:103D500055A20CCA02F0B8FB02F078FC688004207F
:103D6000285E02F0A7FB50A20CCA02F0ADFB02F0E5
:103D70006DFCA880684601F05DFB0500608A401C70
:103D800060824B498D4269D028004A490880207BD7
:103D900000281FD002283DD029D34AE0C0C7000820
:103DA00050470020E04600200E00002014000020B4
:103DB00048B60008E8C70008F44300206D0500007D
:103DC000684300200C8B00000446002068B6000801
:103DD0001100002028003238A1282BD3280080B2FF
:103DE00001F006FC0100032924DA207322E02800F8
:103DF0001F38D12805D328000A38FF2156318842C0
:103E000018D3280080B201F0F3FB0100032911DA76
:103E100020730FE028000B38FF215431884209D26B
:103E2000280080B201F0E4FB0100032902DA2073CC
:103E300000E000BF207BE17B88420CD000231A46C3
:103E400002210E20FFF7D0FD2A001220215E00BFC4
:103E50001BA000F007FB207BE073F7BD1FA000F064
:103E600001FB00BFF7BD154800F0FCFAF7BD636821
:103E7000A26861691FA000F0F5FAF7BD24A000F068
:103E8000F1FAF7BD120000207CB6000809000020FE
:103E90008CB60008D04200200B4800200D00002006
:103EA0000A0000200CC8000808AC1C5A643BCF3F35
:103EB000F1D8FFFFBC0000200A48002030C80008ED
:103EC00053656E736F725F5374617465203A205B43
:103ED00025645D5B25645D0D0A000000534C50496C
:103EE0005F434F4D4D5F4641494C203A205B25646E
:103EF0005D0D0A005B544F5543485D20583D253405
:103F0000642C593D2534642C463D2531640D0A004E
:103F10004D53475F544D500D0A00000038B5FFF770
:103F200073F80500FFF770F8974C200002F005FECB
:103F3000202808D0FFF768F800BF401B1428F4DBE6
:103F4000924800F08FFA10202168C86100BF31BD8F
:103F5000F7B51F008C4E8E4C207800281DD1FFF73E
:103F600053F86060FFF7DAFF3B0068460289019969
:103F7000300002F00BFC0025656001000CD0FFF75B
:103F800043F86060FFF7CAFF3B0068460289019969
:103F9000300002F0FBFB6560FEBDFFF7BFFF3B009A
:103FA000684602890199300002F0F0FB0100F3D06D
:103FB000FFF7B4FF3B00684602890199300002F028
:103FC000E5FBFEBDF7B51F006F4E714C2078002851
:103FD0001DD1FFF719F86060FFF7A0FF3B006846AE
:103FE00002890199300002F08FFC00256560010014
:103FF0000CD0FFF709F86060FFF790FF3B006846C0
:1040000002890199300002F07FFC6560FEBDFFF778
:1040100085FF3B00684602890199300002F074FC7C
:104020000100F3D0FFF77AFF3B006846028901994F
:10403000300002F069FCFEBD70B50E001500FFF700
:104040006DFF514C2A003100200002F00FFD0028C6
:1040500007D0FFF763FF2A003100200002F006FDC1
:1040600070BD002070BD0000F8B50700464CA742A7
:104070006DD17F4D2800FEF7D7F90021C943884252
:104080005CD02978032944D1002836D100242000AF
:1040900078490870784E3078012823D1774D224630
:1040A00096212800FFF75AFC04202870210069702F
:1040B000A8700220E87072480178022901D103201B
:1040C000E870EA7822A000F0CDF923461A460621CE
:1040D0000D20FFF789FC20006A490870347000F059
:1040E0005AF9F1BD684E34702046FDF7A7FF20460F
:1040F00000F051F9012030701BE01B2819D100207D
:104100005C4908701B20FDF799FF002000F043F97F
:104110000FE03223CA1E92B2E91C2000FFF752FFC3
:10412000002801D000F09EF82800FEF77DF9FDF789
:1041300085FF002296212800FFF710FC38680068F0
:10414000F0210901014002D1012000F0DCFDF1BDA8
:104150004C49445F416E676C653A5B25645D204C59
:1041600049443A5B25645D0D0A0000000649884217
:1041700000D0704780B5002296214048FFF7EEFB43
:1041800000F0FFF801BD00000446002058CB0008F5
:10419000D447002070B5394C2078002801D1002088
:1041A00070BD3A49097800290AD13223032221003F
:1041B0003748FFF7CDFE060024D000F053F821E089
:1041C00004280BD16078002808D1A078022805D1F6
:1041D000E078F02802D1642003F038FA2C4D6423F3
:1041E000032221002800FFF7B3FE060006D0642357
:1041F000032221002800FFF7ABFE0600300001D0AB
:1042000000F030F820780100C91E17D14E49097816
:10421000002913D1002000F0BEF800F0B2F8002011
:104220008021890001E000BF401C8842FBDB0120A7
:1042300000F0B1F800F04FF9300070BD3223C21E1B
:1042400092B2E11C1248FFF783FE050001D000F096
:1042500009F8002296212000FFF780FB00F091F87A
:10426000280070BD80B50A4800F014F801BD0000B8
:10427000384200200B00002009000020D04200201E
:10428000AC4700200A4800200B480020D4470020FB
:1042900004460020F0B405242100026813680125BB
:1042A000AB4313602A0200231D0001E000BF6D1C18
:1042B0009542FBDB0668012537682F4001D0641E5C
:1042C000F2D134682C4334601C0001E000BF641C50
:1042D0009442FBDB046824682C40002C02D1491E68
:1042E0000029F1D100BF00BF00BF4364010041318C
:1042F00020220A7003634B70F0BC704738B504008D
:10430000404DAC4213D100BF43A000F0ABF82800F1
:10431000FFF7C0FF002000F03EF820680068F021A1
:10432000090101400ED1012000F0EDFC31BD364DF8
:10433000AC4207D13EA000F095F82800FFF7AAFF95
:1043400001F0D9F931BD00000C00002010B52D4C52
:10435000A04209D13CA000F085F82000FFF79AFFA9
:10436000002000F018F810BD274CA04208D100BF73
:104370002FA000F077F82000FFF78CFF01F0BBF9C9
:1043800010BD80B5FFF7CAFD032220491D4802F089
:104390006DFB01BD000038B5A024E4051C4D0128CB
:1043A00008D1FEF731FE2860002240212000FFF7EF
:1043B0002AF931BDFEF728FE2968401A02288041FB
:1043C000C043C00F6860012240212000FFF71BF9A5
:1043D00031BD10B50F4C002296212000FFF7BEFA28
:1043E0000420207000216170A0700220E0700B4654
:1043F0000A460D20FFF7F8FA0020FFF7CCFF10BDAA
:1044000000000000044600205046002038420020F2
:10441000DC470020D042002048414C5F4932435FD6
:104420004572726F7243616C6C6261636B0A00006B
:1044300048414C5F493243325F4572726F7243614B
:104440006C6C6261636B0A0048414C5F4932435FA8
:1044500041626F727443706C7443616C6C6261632F
:104460006B0A00000EB4C0B5020003A80190002042
:10447000009001AB0121044878440C3003F0FAF8B5
:10448000029906B0084700BFEB870000BFF34F8FCB
:104490009148B0490860BFF34F8F00BFFDE710B4EB
:1044A0000B004B4301685C00E418A14353430B43EA
:1044B000036010BC7047A84908707047A749096895
:1044C0000128C86803D101220243CA607047012253
:1044D0009043C8607047A24800210A00C271016081
:1044E00070479E49884200D0704770B504F050F97B
:1044F0009C480188491C01809B4DFC2040002C18E1
:10450000207A01280AD16068401C6060974988427F
:1045100004D3E07A002801D10220E0729620400006
:104520002E18607A002829D1002000F07FF99048E9
:1045300001F0B4FA31886854308871880200AA5CAE
:1045400089187180401C308080B2962252009042BF
:1045500040D30025090402D0280060720CE001203D
:1045600000F064F928002080012060722B461A4672
:1045700011460220FFF738FA356070BD80214900EE
:10458000A948FFF739F8982149006918228888540A
:10459000228870881300C95C40187080521C2280E9
:1045A00092B2C82A16D30025000405D02800308016
:1045B0000120FFF780FF0AE02846FFF77CFF02207A
:1045C00060722B461A4611460320FFF70DFA2800A9
:1045D0002080758070BD70B50500A026F60580248A
:1045E000640021003000FFF707F8012802D12800FD
:1045F00001280CD0012D05D1012221003000FFF748
:1046000002F870BD002221003000FEF7FCFF70BDF3
:1046100038B50020FFF752FFAF4C20680168202218
:1046200091430160206801681022914301602000DD
:10463000FBF728FF2000FBF75BFEC0200001A74925
:10464000086000BFAEA0FFF70DFF0120FFF7C3FF1A
:10465000FEF7DAFC0400FEF7D7FCFEF7D5FC0500F8
:10466000802149007048FEF7C7FF012808D000BF2D
:10467000281BFA2149008842EFDB00F02FF802E006
:10468000322002F0E3FF00F0F5F9FCF77DFEFDF7C4
:104690000BFA934C002296212000FFF74FF90322DA
:1046A00021009048FFF7C8FC002802D09BA0FFF72C
:1046B000D9FE0120FFF702FF31BD00008A480068E3
:1046C000C1694906FAD5C1690906FCD500BF00BF1A
:1046D00000BFFFF7DBFE00BF0400FA0538B5002479
:1046E00040215148FEF788FF002828D17F4D2246FF
:1046F00096212800FFF722F9042028702100697014
:10470000A8700220E870FFF745FD2046FFF743FE42
:104710002046FFF760FF734802F018F86E4D28003E
:10472000FBF7B0FE286801682022914301602868E9
:1047300001681022914301602800FBF7D9FDFFF7C3
:10474000BDFF8020400201E000BF641C8442FBDB0F
:1047500031BD00000CED00E0E83F0020E046002005
:10476000E43F002008480020E83D0020400D030001
:1047700020470020F8B50421A020C005FEF73CFF2B
:104780000400584F380002F0D8F9220001005848C0
:10479000FFF768FE57480078012801D1FFF79EFF18
:1047A0000020FFF78BFE1024E4432025ED434A4E02
:1047B0005148007802280ED13000FBF763FE3068C4
:1047C00001680D400560306801680C4004603000ED
:1047D000FBF78EFD23E03000FBF754FE30680168E4
:1047E0000D400560306801680C4004603000FBF744
:1047F0007FFD0020FFF7CFFDC02000013749086092
:1048000000F038F9FCF7C0FDFDF74EF93868006894
:10481000F0210901014002D1012000F074FA0120C9
:10482000FFF74CFEF1BD00000004005030B585B02C
:104830000400002214216846FFF790F8200021D1DF
:10484000042000900020019002906946A020C0053D
:10485000FEF7A6FD294C80256D00012229002000CD
:10486000FFF71DFE012229002000FEF7CCFE0122E9
:1048700020212000FFF713FE002220212000FEF758
:10488000C2FE26E0012C24D10420009012200190C9
:10489000002002900321039104906946A020C005E6
:1048A000FEF77EFD154C80256D00002229002000BA
:1048B000FEF7A9FE002229002000FFF7F0FD0122EB
:1048C00020212000FFF7EBFD002220212000FEF731
:1048D0009AFE05B030BD000068430020340002405D
:1048E0003842002004460020F4430020D04200203B
:1048F00088CB00080E000020E93F00200004005093
:104900000A315769726520506F7765724F6E202D9E
:104910003E205374617274200D0A00004669727360
:104920007420493243205374617274204572726F4F
:1049300072200A0010B500240A480168820D0A435B
:104940000260204601F0E2F9002801D0012401E0D4
:1049500003F030FF200010BD03490A6810430860CF
:10496000704700000020024000000140F8B586B00A
:10497000142200216846FEF709FD0124374801682A
:1049800021430160016821400591059902270168D2
:104990003943016001683940059105990426016891
:1049A0003143016001683140059105992021026879
:1049B0000A43026000680140059105982246284993
:1049C000A020C005FEF71FFE224620212548FEF745
:1049D0001AFE2502002229002248FEF714FE0022BA
:1049E0002900A020C005FEF70EFE1F48009001948C
:1049F0000025029503956946A020C005FEF7D0FC6E
:104A00009020400000900194029503956946154856
:104A1000FEF7C6FCC020000200900324019402951A
:104A200069461248FEF7BCFC1320009001940295E1
:104A30006946A020C005FEF7B3FC009701940295DB
:104A400069460848FEF7ACFC009601940295694659
:104A50000748FEF7A5FC07B0F0BD00BF34100240C8
:104A60004080000000040050408100000008005019
:104A70000014005080B5012010490A6802430A6002
:104A80000968084000900098002201210920FEF7E3
:104A900018FE0920FEF719FE002201210A20FEF768
:104AA00010FE0A20FEF711FE002201210B20FEF766
:104AB00008FE0B20FEF709FE01BD00BF38100240C2
:104AC00080B5224822490160490D01610021416100
:104AD000C161816081610162C1604160416200F039
:104AE000C1FE002801D0FDF7D5FE01BD38B586B066
:104AF00004001422002101A8FEF748FC2068144994
:104B0000884220D1012013490A6802430A600968DB
:104B10000840009000980820019003200290002493
:104B20000394A025ED0501A92800FEF739FC80209B
:104B3000019002200290039404940720059001A99B
:104B40002800FEF72DFC07B030BD000020470020F4
:104B5000040201403410024010B57B4C7B482060B9
:104B60007B4860605420A0600120E060002020614C
:104B70006061A061E0612062200001F091FD0028E9
:104B800001D0FDF787FE0021200000F0BDFD0028C8
:104B900001D0FDF77FFE0521200000F0E0FD002898
:104BA00001D0FDF777FE10BD10B56A4C6A48206051
:104BB0006A4860605420A0600120E060002020610D
:104BC0006061A061E0612062200001F069FD0028C1
:104BD00001D0FDF75FFE0021200000F095FD0028C8
:104BE00001D0FDF757FE0521200000F0B8FD002898
:104BF00001D0FDF74FFE10BD10B586B004001422A1
:104C000000216846FEF7C2FB20685049884228D13F
:104C10000220534C2168014321602168084005901F
:104C20000598C020009012200190012002900320DE
:104C300003900620049069464A48FEF7B1FB8020A5
:104C40008003A1680143A160A16808400590059810
:104C5000002201211720FEF734FD1720FEF735FD55
:104C60002BE03D49884228D101203D4C2168014379
:104C700021602168014005910599C02149010091F9
:104C800012210191029003200390062004906946AE
:104C9000A020C005FEF784FB8020C003A16801436B
:104CA000A160A16808400590059800220121182004
:104CB000FEF707FD1820FEF708FD06B010BD80B511
:104CC0000068224988420CD127480168274A0A40D7
:104CD0000260C0212348FEF719FC1720FEF7F9FCFB
:104CE00001BD1D4988420DD11F480168204A0A4074
:104CF0000260C0214901A020C005FEF707FC182072
:104D0000FEF7E7FC01BD10B40F490A6813680124DF
:104D1000A343136000BF00BF00BF0A681368154CAF
:104D20001C401460002805D008680268A023DB003E
:104D3000134303600868016801220A43026000BF50
:104D400000BF00BF10BC7047044600200054004064
:104D50001501100050460020005800406E1C6000F5
:104D600034100240000400503C100240FFFFDFFFFF
:104D7000FFFFBFFFFFF0FFFF30B587B0102200211B
:104D800003A8FEF703FB0C2200216846FEF7FEFA9B
:104D9000214C8020C0052060032060600025A560B4
:104DA000FF209030E0602561A561200001F0FAF855
:104DB000002801D0FDF76EFD80204001039003A97B
:104DC000200001F0DDF9002801D0FDF763FD00951A
:104DD00002956946200003F005FD002801D0FDF78B
:104DE00059FD07B030BD00688021C905884200D058
:104DF000704780B5012009490A6802430A600968C2
:104E0000084000900098002201210F20FEF759FC75
:104E10000F20FEF75AFC01BDE04600203C10024086
:104E200080B513481349016000210A000271012274
:104E300042710022D243026141618161032101621A
:104E400003F0FEFC002801D0FDF724FD01BD81B078
:104E500000680849884208D1880C07490A6802435B
:104E60000A60096808400090009801B0704700008F
:104E70007C470020003002403810024010B5284C1A
:104E8000284820600020A0607F21E160FF2121618F
:104E90006061A061E0618021C9052162606220003B
:104EA00000F062FF002801D0FDF7F4FC0022C821C9
:104EB000200003F005FD002801D0FDF7EBFC10BD3C
:104EC00000681849884200D0704780B51648016ACA
:104ED000802212020A430262010D02680A43026044
:104EE0000068014000910098002211460220FEF760
:104EF000E8FB0220FEF7E9FB01BD00680949884292
:104F000000D0704780B50848016A084A0A4002622A
:104F10000168074A0A4002600220FEF7DAFB01BD81
:104F200050470020002800403C100240FF7FFFFF58
:104F3000FFFBFFFF30B589B01822002103A8FEF760
:104F400025FA0C2200216846FEF720FA354C364837
:104F500020608020C00560601020A0600025E56012
:104F600025610420606129002183A1760121E1618E
:104F700029002022A1546562A5622C22A154256338
:104F80006063A56328003C216054E564200003F0C1
:104F9000C1FD002801D0FDF77DFCC0200004049075
:104FA00003A9200004F01CF8002801D0FDF772FCD2
:104FB0001E480090019502956946200003F0E4FE2A
:104FC000002801D0FDF766FC09B030BD10B586B0F1
:104FD00004001422002101A8FEF7D8F92068124924
:104FE00088421CD1124880214903C2680A43C2602A
:104FF000C268114000910099012102680A430260D1
:105000000068014000910098082001900320029060
:105010000020039001A9A020C005FEF7C1F906B049
:1050200010BD000000450020002401400800000CD5
:1050300034100240F8B596B001210A006B461A728E
:10504000C20F02D00022D2431A72C20D7F3A52B26E
:105050004002400ACB05034317241500641BE340BC
:105060000393002A3FD41100491C88400002000A23
:10507000C8400EA980231B0303401624641BE34091
:105080000B708023DB0203401524641BE3404B704C
:1050900080239B0203401424641BE3408B70802315
:1050A0005B0203401324641BE340CB7080231B028C
:1050B00003401224641BE3400B718023DB01034097
:1050C0001124641BE3404B7180239B010340102497
:1050D000641BE3408B7180235B0118400F239A1AF5
:1050E000D040C8713AE039D55342DBB200252C00DC
:1050F0001E2B01DBAE481AE12E000EAA2F0002E0A3
:1051000034009755761C9E42FADBE4B2830D0D0005
:105110001D4013195D70430D0D001D4013199D7046
:10512000030D0D001D401319DD70C30C0D001D4053
:1051300013191D71830C0D001D4013195D71430C73
:105140000D001D4013199D7103001B0C0D001D4027
:105150001319DD71C00B0140101901720022AE4B12
:1051600010468021C90504F0A1F86A4603C2002256
:10517000C0231B061046594204F098F80CAA03C23B
:105180000022A64B10468021C90504F08FF80AAA18
:1051900003C20022A24B10468021C90504F086F804
:1051A00008AA03C200229F4B10468021C90504F0C3
:1051B0007DF806000F0000229B4B10468021C90598
:1051C00004F074F806AA03C20022984B104680210E
:1051D000C90504F06BF804AA03C20EAC207801F0F4
:1051E00059F902000B00684603C801F06DF9009000
:1051F0000191607801F04EF902000B000CA803C881
:1052000001F062F902000B000098019904F0F6FB2E
:1052100000900191A07801F03DF902000B000AA86E
:1052200003C801F051F902000B000098019904F045
:10523000E5FB00900191E07801F02CF902000B00F1
:1052400008A803C801F040F902000B00009801997A
:1052500004F0D4FB00900191207901F01BF90200C9
:105260000B003000390001F02FF902000B0000980C
:10527000019904F0C3FB06000F00607901F00AF900
:1052800002000B0006A803C801F01EF902000B0083
:105290003000390004F0B2FB06000F00A07901F0E5
:1052A000F9F802000B0004A803C801F00DF9020090
:1052B0000B003000390004F0A1FB06000F00E0797C
:1052C00001F0E8F804000D000022594B104680213F
:1052D000C90503F0EBFF02000B002000290001F0DC
:1052E000F3F802000B003000390004F087FB04F0F3
:1052F0005FFC050069460820085604F09BFC01008D
:105300000C00039804F086FC290004F09EFC2100A8
:1053100004F02BFD04F082FDAFA20CCA04F097FD4F
:105320000022B14B01F0D0F801F090F900B217B0B3
:10533000F0BD70B50026AA4C30006080012001004D
:105340002170607032460C21201DFEF707FB200003
:10535000183005F047FC304604F0DAFD606104F0D7
:10536000E1FDA04D2900606905F0DCFB2E709F482F
:10537000E8602900606905F0DEFB70BD38B50025E6
:10538000974C2800608001200100217060702A463F
:105390000C21201DFEF7E2FA606904F0C3FD91497B
:1053A0000D709248C860606905F0C5FB31BD000012
:1053B000F1D8FFFFF7B500263500C34F13460A4664
:1053C0000099380001F0A0FA002823D03800FEF739
:1053D00061FF30008024640001E000BF401CA04257
:1053E000FBDB029B684682880099380001F08CFA4A
:1053F00000280FD03800FEF74DFF01E000BF761CFB
:10540000A642FBDB029B684682880099380001F0C7
:105410007BFA05002800FEBD0000F0BF000008C0B8
:10542000000010C0000014C0000018C000001CC024
:10543000000020C0F8B58AB00700A448694608807B
:1054400000220C2101A8FEF789FA0022062104A8F7
:10545000FEF784FA00220F2106A8FEF77FFA00F07B
:1054600041F90A22042106A8FFF7A4FF002800D072
:1054700098E006AC2078012800D093E060780328FB
:1054800000D08FE0A078002800D08BE000220F2110
:1054900006A8FEF763FA0A22042106A8FFF78AFF8E
:1054A000002800D07EE0207801287BD16078112888
:1054B00078D1A078002875D100220F2106A8FEF728
:1054C0004DFA0A220F2106A8FFF774FF002869D1C0
:1054D0002078022866D16078502863D1A07801280E
:1054E00060D100F008F9A079000661790904014350
:1054F000207900020843E17801430191A07A000677
:10550000617A09040143207A00020843E1790143EA
:105510000291A07B0006617B09040143207B00020D
:105520000843E17A0143039104AC0198FFF782FD3F
:105530002080029E3000FFF77DFD6080039D2800E3
:10554000FFF778FDA080264C2078002817D16078DE
:10555000012814D160680199884209D1A068B0423D
:1055600006D1E068A84203D16846218A018006E09E
:105570006A46390004A800F04FF8002060702078D7
:105580006178014304D16A46390004A800F044F868
:105590006078012809D101986060A660E56000206C
:1055A000207002E049486946088000F0A4F800989D
:1055B00000B2464988420AD180210901A020C005D5
:1055C000FEF71AF8002802D13F48FEF763FE009864
:1055D00000B20BB0F0BD000005A3923A019D23403C
:1055E000AC0000209C46002000408F40CDCCCC3C3D
:1055F000010064200A00333A9F2A01D2002070473C
:105600000A001E3AD32A06D301200A39FF22563255
:10561000914200D302207047F6B58BB005000E0012
:105620002B4C2C4F0020305E04F004FB390005F0B9
:10563000E9FA20600220305E04F0FCFA01002648FE
:1056400004F093FB390005F0DDFA60600420305E61
:1056500004F0F0FA204904F088FB390005F0D2FA92
:10566000A0600220285E04F0E5FA390005F0CAFACD
:10567000A0610020285E04F0DDFA390005F0C2FACE
:10568000E0610420285E04F0D5FA390005F0BAFA8A
:10569000206212482063210082B068463422FEF75F
:1056A0007BF90CBC210038310D48406904F068FCDE
:1056B00034216054A06B05F0FBFA0C99088034206B
:1056C000205C0DB0F0BD000050460020F1D8FFFF77
:1056D000D800002000007A44000080BFCDCC4C3EB2
:1056E000AC00002080B5002280210902A020C00566
:1056F000FDF789FF01BD80B50122D103A020C005BF
:10570000FDF781FF01BDFEE770B40200403253781F
:10571000202B21D14023C35C012B01D102201CE0AE
:1057200001231C00147024245470046825681E464C
:10573000B543256004682568314E2E402660046814
:10574000256829432160006801680B43036020201D
:1057500050700020107000E0022070BC704770B4E0
:10576000020040325378202B1FD14023C35C012B11
:1057700001D102201AE001231C001470242454706B
:10578000046825681E46B5432560046825681D4EDB
:105790002E40090231432160006801680B43036019
:1057A000202050700020107000E0022070BC704774
:1057B00030B4010040314A78202A1DD14022825C59
:1057C000012A01D1022018E0012213000B702423CA
:1057D0004B7003681C681546AC431C6003681C686A
:1057E000950425431D60006803681A430260202069
:1057F00048700020087000E0022030BC70470000B4
:10580000FFEFFFFFFFF0FFFF98490A6810430860B1
:10581000704796490A6882430A60704794490A684B
:1058200010430860704792490A6882430A607047D3
:1058300090490A681043086070478E490A6882439D
:105840000A6070478C490A681043086070478A49AB
:105850000A6882430A60704788490860704788492F
:1058600008607047FEB504000020019001006A4600
:105870001170002C03D021680968002903D501208C
:1058800069460870C8E02921615C002906D1010041
:105890002822A154E0622000FFF728F92268302076
:1058A000116801401368774D1D4063692B432569DA
:1058B0001D43236A2B43A5691D43E3692B43E56818
:1058C0001D4315606668704B704DDA43964206D1F1
:1058D0002E6833402B606B681A436A600FE0C70183
:1058E000BE4206D12E6832432A606A6813406B605C
:1058F00005E02A681A402A606A6813406B60A26853
:10590000012A1AD08023DB019A4204D0A023DB01B4
:105910009A4208D01AE02A6813432B606A685C4BED
:1059200013406B6019E02A68594B13402B606A687A
:105930008023DB0113436B600FE08022D2012B68D0
:1059400013432B606B681A436A6006E0504A2B6869
:1059500013402B606B681A406A602268126810401E
:1059600011D000290FD14B4800684B49FAF7C1FB11
:10597000810008188000019002E00198401E01900B
:1059800001980028F9D12068A84202D18025AD02F3
:1059900001E08025ED02606A810730D0C00603D5A2
:1059A0002800FFF745FF02E02800FFF746FF24200C
:1059B000205C800603D52800FFF744FF02E02800A2
:1059C000FFF745FF2800FFF74AFF2800FFF744FFD5
:1059D0002420205C800703D52800FFF71FFF02E08A
:1059E0002800FFF720FF2420205CC00703D52800F3
:1059F000FFF70AFF09E02800FFF70BFF05E028008A
:105A0000FFF711FF2800FFF704FF2920205C002882
:105A100002D101202921605468460078FEBD18B5E6
:105A20000024009400281CD001680A68002A18D4B9
:105A30002922825C012A14D10A68012313430B60D6
:105A4000022129228154134800681349FAF751FBB7
:105A5000C00000900098002804D00098401E0090DC
:105A6000F8E70124200012BD000000008018024069
:105A70008418024000180240041802401018024026
:105A80000C1802400F7400FEFFF7FFFF00020140F8
:105A9000FFBFFFFF24010020400D030000680168E4
:105AA00008004000C00F704710B50E4C21680E4A28
:105AB0000A4002432260610D884211D10B48006800
:105AC0004100081840000A49FAF713FB401C00E0A7
:105AD000401E6169490503D50028F9D1032010BD96
